{
  "contractName": "MidnightLabs",
  "abi": [
    {
      "inputs": [
        {
          "internalType": "string",
          "name": "uriBase",
          "type": "string"
        },
        {
          "internalType": "string",
          "name": "_name",
          "type": "string"
        },
        {
          "internalType": "string",
          "name": "_symbol",
          "type": "string"
        }
      ],
      "stateMutability": "nonpayable",
      "type": "constructor"
    },
    {
      "anonymous": false,
      "inputs": [
        {
          "indexed": true,
          "internalType": "address",
          "name": "account",
          "type": "address"
        },
        {
          "indexed": true,
          "internalType": "address",
          "name": "operator",
          "type": "address"
        },
        {
          "indexed": false,
          "internalType": "bool",
          "name": "approved",
          "type": "bool"
        }
      ],
      "name": "ApprovalForAll",
      "type": "event"
    },
    {
      "anonymous": false,
      "inputs": [
        {
          "indexed": true,
          "internalType": "address",
          "name": "previousOwner",
          "type": "address"
        },
        {
          "indexed": true,
          "internalType": "address",
          "name": "newOwner",
          "type": "address"
        }
      ],
      "name": "OwnershipTransferred",
      "type": "event"
    },
    {
      "anonymous": false,
      "inputs": [
        {
          "indexed": false,
          "internalType": "address",
          "name": "account",
          "type": "address"
        }
      ],
      "name": "Paused",
      "type": "event"
    },
    {
      "anonymous": false,
      "inputs": [
        {
          "indexed": true,
          "internalType": "address",
          "name": "operator",
          "type": "address"
        },
        {
          "indexed": true,
          "internalType": "address",
          "name": "from",
          "type": "address"
        },
        {
          "indexed": true,
          "internalType": "address",
          "name": "to",
          "type": "address"
        },
        {
          "indexed": false,
          "internalType": "uint256[]",
          "name": "ids",
          "type": "uint256[]"
        },
        {
          "indexed": false,
          "internalType": "uint256[]",
          "name": "values",
          "type": "uint256[]"
        }
      ],
      "name": "TransferBatch",
      "type": "event"
    },
    {
      "anonymous": false,
      "inputs": [
        {
          "indexed": true,
          "internalType": "address",
          "name": "operator",
          "type": "address"
        },
        {
          "indexed": true,
          "internalType": "address",
          "name": "from",
          "type": "address"
        },
        {
          "indexed": true,
          "internalType": "address",
          "name": "to",
          "type": "address"
        },
        {
          "indexed": false,
          "internalType": "uint256",
          "name": "id",
          "type": "uint256"
        },
        {
          "indexed": false,
          "internalType": "uint256",
          "name": "value",
          "type": "uint256"
        }
      ],
      "name": "TransferSingle",
      "type": "event"
    },
    {
      "anonymous": false,
      "inputs": [
        {
          "indexed": false,
          "internalType": "string",
          "name": "value",
          "type": "string"
        },
        {
          "indexed": true,
          "internalType": "uint256",
          "name": "id",
          "type": "uint256"
        }
      ],
      "name": "URI",
      "type": "event"
    },
    {
      "anonymous": false,
      "inputs": [
        {
          "indexed": false,
          "internalType": "address",
          "name": "account",
          "type": "address"
        }
      ],
      "name": "Unpaused",
      "type": "event"
    },
    {
      "inputs": [],
      "name": "MAX_TOKENS",
      "outputs": [
        {
          "internalType": "uint256",
          "name": "",
          "type": "uint256"
        }
      ],
      "stateMutability": "view",
      "type": "function"
    },
    {
      "inputs": [],
      "name": "TOKEN_ID",
      "outputs": [
        {
          "internalType": "uint256",
          "name": "",
          "type": "uint256"
        }
      ],
      "stateMutability": "view",
      "type": "function"
    },
    {
      "inputs": [
        {
          "internalType": "address",
          "name": "account",
          "type": "address"
        },
        {
          "internalType": "uint256",
          "name": "id",
          "type": "uint256"
        }
      ],
      "name": "balanceOf",
      "outputs": [
        {
          "internalType": "uint256",
          "name": "",
          "type": "uint256"
        }
      ],
      "stateMutability": "view",
      "type": "function"
    },
    {
      "inputs": [
        {
          "internalType": "address[]",
          "name": "accounts",
          "type": "address[]"
        },
        {
          "internalType": "uint256[]",
          "name": "ids",
          "type": "uint256[]"
        }
      ],
      "name": "balanceOfBatch",
      "outputs": [
        {
          "internalType": "uint256[]",
          "name": "",
          "type": "uint256[]"
        }
      ],
      "stateMutability": "view",
      "type": "function"
    },
    {
      "inputs": [
        {
          "internalType": "uint256",
          "name": "",
          "type": "uint256"
        }
      ],
      "name": "collectionMinted",
      "outputs": [
        {
          "internalType": "bool",
          "name": "",
          "type": "bool"
        }
      ],
      "stateMutability": "view",
      "type": "function"
    },
    {
      "inputs": [
        {
          "internalType": "uint256",
          "name": "id",
          "type": "uint256"
        }
      ],
      "name": "exists",
      "outputs": [
        {
          "internalType": "bool",
          "name": "",
          "type": "bool"
        }
      ],
      "stateMutability": "view",
      "type": "function"
    },
    {
      "inputs": [
        {
          "internalType": "address",
          "name": "",
          "type": "address"
        }
      ],
      "name": "hasAddressMinted",
      "outputs": [
        {
          "internalType": "bool",
          "name": "",
          "type": "bool"
        }
      ],
      "stateMutability": "view",
      "type": "function"
    },
    {
      "inputs": [
        {
          "internalType": "address",
          "name": "account",
          "type": "address"
        },
        {
          "internalType": "address",
          "name": "operator",
          "type": "address"
        }
      ],
      "name": "isApprovedForAll",
      "outputs": [
        {
          "internalType": "bool",
          "name": "",
          "type": "bool"
        }
      ],
      "stateMutability": "view",
      "type": "function"
    },
    {
      "inputs": [],
      "name": "name",
      "outputs": [
        {
          "internalType": "string",
          "name": "",
          "type": "string"
        }
      ],
      "stateMutability": "view",
      "type": "function"
    },
    {
      "inputs": [],
      "name": "owner",
      "outputs": [
        {
          "internalType": "address",
          "name": "",
          "type": "address"
        }
      ],
      "stateMutability": "view",
      "type": "function"
    },
    {
      "inputs": [],
      "name": "paused",
      "outputs": [
        {
          "internalType": "bool",
          "name": "",
          "type": "bool"
        }
      ],
      "stateMutability": "view",
      "type": "function"
    },
    {
      "inputs": [],
      "name": "renounceOwnership",
      "outputs": [],
      "stateMutability": "nonpayable",
      "type": "function"
    },
    {
      "inputs": [
        {
          "internalType": "address",
          "name": "from",
          "type": "address"
        },
        {
          "internalType": "address",
          "name": "to",
          "type": "address"
        },
        {
          "internalType": "uint256[]",
          "name": "ids",
          "type": "uint256[]"
        },
        {
          "internalType": "uint256[]",
          "name": "amounts",
          "type": "uint256[]"
        },
        {
          "internalType": "bytes",
          "name": "data",
          "type": "bytes"
        }
      ],
      "name": "safeBatchTransferFrom",
      "outputs": [],
      "stateMutability": "nonpayable",
      "type": "function"
    },
    {
      "inputs": [
        {
          "internalType": "address",
          "name": "operator",
          "type": "address"
        },
        {
          "internalType": "bool",
          "name": "approved",
          "type": "bool"
        }
      ],
      "name": "setApprovalForAll",
      "outputs": [],
      "stateMutability": "nonpayable",
      "type": "function"
    },
    {
      "inputs": [
        {
          "internalType": "bytes4",
          "name": "interfaceId",
          "type": "bytes4"
        }
      ],
      "name": "supportsInterface",
      "outputs": [
        {
          "internalType": "bool",
          "name": "",
          "type": "bool"
        }
      ],
      "stateMutability": "view",
      "type": "function"
    },
    {
      "inputs": [],
      "name": "symbol",
      "outputs": [
        {
          "internalType": "string",
          "name": "",
          "type": "string"
        }
      ],
      "stateMutability": "view",
      "type": "function"
    },
    {
      "inputs": [
        {
          "internalType": "uint256",
          "name": "",
          "type": "uint256"
        }
      ],
      "name": "tokenURI",
      "outputs": [
        {
          "internalType": "string",
          "name": "",
          "type": "string"
        }
      ],
      "stateMutability": "view",
      "type": "function"
    },
    {
      "inputs": [
        {
          "internalType": "uint256",
          "name": "id",
          "type": "uint256"
        }
      ],
      "name": "totalSupply",
      "outputs": [
        {
          "internalType": "uint256",
          "name": "",
          "type": "uint256"
        }
      ],
      "stateMutability": "view",
      "type": "function"
    },
    {
      "inputs": [
        {
          "internalType": "address",
          "name": "newOwner",
          "type": "address"
        }
      ],
      "name": "transferOwnership",
      "outputs": [],
      "stateMutability": "nonpayable",
      "type": "function"
    },
    {
      "inputs": [
        {
          "internalType": "uint256",
          "name": "tokenId",
          "type": "uint256"
        }
      ],
      "name": "uri",
      "outputs": [
        {
          "internalType": "string",
          "name": "",
          "type": "string"
        }
      ],
      "stateMutability": "view",
      "type": "function"
    },
    {
      "inputs": [
        {
          "internalType": "string",
          "name": "newTokenURI",
          "type": "string"
        },
        {
          "internalType": "uint256",
          "name": "tokenId",
          "type": "uint256"
        }
      ],
      "name": "setURI",
      "outputs": [],
      "stateMutability": "nonpayable",
      "type": "function"
    },
    {
      "inputs": [
        {
          "internalType": "string",
          "name": "newTokenURI",
          "type": "string"
        }
      ],
      "name": "setGlobalURI",
      "outputs": [],
      "stateMutability": "nonpayable",
      "type": "function"
    },
    {
      "inputs": [
        {
          "internalType": "address",
          "name": "_signerAddress",
          "type": "address"
        }
      ],
      "name": "setSignerAddress",
      "outputs": [],
      "stateMutability": "nonpayable",
      "type": "function"
    },
    {
      "inputs": [],
      "name": "pause",
      "outputs": [],
      "stateMutability": "nonpayable",
      "type": "function"
    },
    {
      "inputs": [],
      "name": "unpause",
      "outputs": [],
      "stateMutability": "nonpayable",
      "type": "function"
    },
    {
      "inputs": [
        {
          "internalType": "bytes32",
          "name": "messageHash",
          "type": "bytes32"
        },
        {
          "internalType": "bytes",
          "name": "signature",
          "type": "bytes"
        }
      ],
      "name": "mint",
      "outputs": [],
      "stateMutability": "nonpayable",
      "type": "function"
    },
    {
      "inputs": [
        {
          "internalType": "address",
          "name": "account",
          "type": "address"
        },
        {
          "internalType": "uint256",
          "name": "id",
          "type": "uint256"
        },
        {
          "internalType": "uint256",
          "name": "amount",
          "type": "uint256"
        }
      ],
      "name": "adminMint",
      "outputs": [],
      "stateMutability": "nonpayable",
      "type": "function"
    },
    {
      "inputs": [
        {
          "internalType": "address[]",
          "name": "receivers",
          "type": "address[]"
        },
        {
          "internalType": "uint256",
          "name": "numberOfTokens",
          "type": "uint256"
        }
      ],
      "name": "gift",
      "outputs": [],
      "stateMutability": "nonpayable",
      "type": "function"
    },
    {
      "inputs": [
        {
          "internalType": "address",
          "name": "from",
          "type": "address"
        },
        {
          "internalType": "address",
          "name": "to",
          "type": "address"
        },
        {
          "internalType": "uint256",
          "name": "id",
          "type": "uint256"
        },
        {
          "internalType": "uint256",
          "name": "amount",
          "type": "uint256"
        },
        {
          "internalType": "bytes",
          "name": "data",
          "type": "bytes"
        }
      ],
      "name": "safeTransferFrom",
      "outputs": [],
      "stateMutability": "nonpayable",
      "type": "function"
    },
    {
      "inputs": [],
      "name": "withdraw",
      "outputs": [],
      "stateMutability": "nonpayable",
      "type": "function"
    }
  ],
  "bytecode": "0x6080604052600780546001600160a01b03191673abcb40408a94e94f563d64ded69a75a3098cbf591790553480156200003757600080fd5b5060405162002d7c38038062002d7c8339810160408190526200005a91620002bc565b826200006681620000f4565b5062000072336200010d565b6004805460ff60a01b191690558151620000949060059060208501906200015f565b508051620000aa9060069060208401906200015f565b506001600052600960209081528351620000ea917f92e85d02570a8092d09a6e3a57665bc3815a2699a4074001bf1ccabf660f5a3691908601906200015f565b50505050620003a0565b8051620001099060029060208401906200015f565b5050565b600480546001600160a01b038381166001600160a01b0319831681179093556040519116919082907f8be0079c531659141344cd1fd0a4f28419497f9722a3daafe3b4186f6b6457e090600090a35050565b8280546200016d906200034d565b90600052602060002090601f016020900481019282620001915760008555620001dc565b82601f10620001ac57805160ff1916838001178555620001dc565b82800160010185558215620001dc579182015b82811115620001dc578251825591602001919060010190620001bf565b50620001ea929150620001ee565b5090565b5b80821115620001ea5760008155600101620001ef565b600082601f8301126200021757600080fd5b81516001600160401b03808211156200023457620002346200038a565b604051601f8301601f19908116603f011681019082821181831017156200025f576200025f6200038a565b816040528381526020925086838588010111156200027c57600080fd5b600091505b83821015620002a0578582018301518183018401529082019062000281565b83821115620002b25760008385830101525b9695505050505050565b600080600060608486031215620002d257600080fd5b83516001600160401b0380821115620002ea57600080fd5b620002f88783880162000205565b945060208601519150808211156200030f57600080fd5b6200031d8783880162000205565b935060408601519150808211156200033457600080fd5b50620003438682870162000205565b9150509250925092565b600181811c908216806200036257607f821691505b602082108114156200038457634e487b7160e01b600052602260045260246000fd5b50919050565b634e487b7160e01b600052604160045260246000fd5b6129cc80620003b06000396000f3fe608060405234801561001057600080fd5b50600436106101d85760003560e01c806389a8900211610104578063c15d0e21116100a2578063e985e9c511610071578063e985e9c514610400578063f242432a1461043c578063f2fde38b1461044f578063f47c84c51461046257600080fd5b8063c15d0e2114610394578063c87b56dd146103a7578063c94ccfc7146103ba578063d7423031146103dd57600080fd5b8063a22cb465116100de578063a22cb4651461033b578063acd379cc1461034e578063bd85b03914610361578063c0f4af701461038157600080fd5b806389a89002146103105780638da5cb5b1461031857806395d89b411461033357600080fd5b80633ccfd60b1161017c5780635c975abb1161014b5780635c975abb146102db57806367db3b8f146102ed578063715018a6146103005780638456cb591461030857600080fd5b80633ccfd60b146102895780633f4ba83a146102915780634e1273f4146102995780634f558e79146102b957600080fd5b8063046dc166116101b8578063046dc1661461023b57806306fdde031461024e5780630e89341c146102635780632eb2c2d61461027657600080fd5b80624a84cb146101dd578062fdd58e146101f257806301ffc9a714610218575b600080fd5b6101f06101eb366004612232565b61046b565b005b610205610200366004612208565b610588565b6040519081526020015b60405180910390f35b61022b61022636600461242d565b61061a565b604051901515815260200161020f565b6101f0610249366004612068565b61066c565b6102566106cb565b60405161020f919061266e565b6102566102713660046124e9565b610759565b6101f06102843660046120bd565b610825565b6101f06108bc565b6101f0610957565b6102ac6102a73660046122e0565b61098b565b60405161020f919061262d565b61022b6102c73660046124e9565b600090815260036020526040902054151590565b600454600160a01b900460ff1661022b565b6101f06102fb3660046124a4565b610ab5565b6101f0610afe565b6101f0610b32565b610205600181565b6004546040516001600160a01b03909116815260200161020f565b610256610b64565b6101f06103493660046121cc565b610b71565b6101f061035c3660046123b1565b610b80565b61020561036f3660046124e9565b60009081526003602052604090205490565b6101f061038f366004612265565b610d69565b6101f06103a2366004612467565b610e7a565b6102566103b53660046124e9565b610ead565b61022b6103c8366004612068565b600a6020526000908152604090205460ff1681565b61022b6103eb3660046124e9565b60086020526000908152604090205460ff1681565b61022b61040e36600461208a565b6001600160a01b03918216600090815260016020908152604080832093909416825291909152205460ff1690565b6101f061044a366004612167565b610ec6565b6101f061045d366004612068565b610f1b565b6102056107d081565b6004546001600160a01b0316331461049e5760405162461bcd60e51b815260040161049590612758565b60405180910390fd5b60008281526008602052604090205460ff16156104fd5760405162461bcd60e51b815260206004820152601d60248201527f43414e4e4f545f4d494e545f4558495354494e475f544f4b454e5f49440000006044820152606401610495565b600182141561054e5760405162461bcd60e51b815260206004820152601d60248201527f43414e4e4f545f4d494e545f4558495354494e475f544f4b454e5f49440000006044820152606401610495565b6000828152600860209081526040808320805460ff191660011790558051918201905290815261058390849084908490610fb3565b505050565b60006001600160a01b0383166105f45760405162461bcd60e51b815260206004820152602b60248201527f455243313135353a2062616c616e636520717565727920666f7220746865207a60448201526a65726f206164647265737360a81b6064820152608401610495565b506000908152602081815260408083206001600160a01b03949094168352929052205490565b60006001600160e01b03198216636cdb3d1360e11b148061064b57506001600160e01b031982166303a24d0760e21b145b8061066657506301ffc9a760e01b6001600160e01b03198316145b92915050565b6004546001600160a01b031633146106965760405162461bcd60e51b815260040161049590612758565b6001600160a01b0381166106a957600080fd5b600780546001600160a01b0319166001600160a01b0392909216919091179055565b600580546106d8906127ff565b80601f0160208091040260200160405190810160405280929190818152602001828054610704906127ff565b80156107515780601f1061072657610100808354040283529160200191610751565b820191906000526020600020905b81548152906001019060200180831161073457829003601f168201915b505050505081565b6000818152600960205260409020805460609190610776906127ff565b1515905061078757610666826110c3565b600082815260096020526040902080546107a0906127ff565b80601f01602080910402602001604051908101604052809291908181526020018280546107cc906127ff565b80156108195780601f106107ee57610100808354040283529160200191610819565b820191906000526020600020905b8154815290600101906020018083116107fc57829003601f168201915b50505050509050919050565b6001600160a01b0385163314806108415750610841853361040e565b6108a85760405162461bcd60e51b815260206004820152603260248201527f455243313135353a207472616e736665722063616c6c6572206973206e6f74206044820152711bdddb995c881b9bdc88185c1c1c9bdd995960721b6064820152608401610495565b6108b585858585856110d2565b5050505050565b6004546001600160a01b031633146108e65760405162461bcd60e51b815260040161049590612758565b600047116109285760405162461bcd60e51b815260206004820152600f60248201526e42414c414e43455f49535f5a45524f60881b6044820152606401610495565b60405133904780156108fc02916000818181858888f19350505050158015610954573d6000803e3d6000fd5b50565b6004546001600160a01b031633146109815760405162461bcd60e51b815260040161049590612758565b6109896112bd565b565b606081518351146109f05760405162461bcd60e51b815260206004820152602960248201527f455243313135353a206163636f756e747320616e6420696473206c656e677468604482015268040dad2e6dac2e8c6d60bb1b6064820152608401610495565b6000835167ffffffffffffffff811115610a0c57610a0c6128c4565b604051908082528060200260200182016040528015610a35578160200160208202803683370190505b50905060005b8451811015610aad57610a80858281518110610a5957610a596128ae565b6020026020010151858381518110610a7357610a736128ae565b6020026020010151610588565b828281518110610a9257610a926128ae565b6020908102919091010152610aa681612867565b9050610a3b565b509392505050565b6004546001600160a01b03163314610adf5760405162461bcd60e51b815260040161049590612758565b6000818152600960209081526040909120835161058392850190611ec8565b6004546001600160a01b03163314610b285760405162461bcd60e51b815260040161049590612758565b610989600061135a565b6004546001600160a01b03163314610b5c5760405162461bcd60e51b815260040161049590612758565b6109896113ac565b600680546106d8906127ff565b610b7c338383611434565b5050565b600160005260036020527fa15bc60c955c405d20d9149c709e2460f1c2d9a497496a7f46004d1772c3054c546107d011610bfc5760405162461bcd60e51b815260206004820152601860248201527f4d41585f544f4b454e5f535550504c595f5245414348454400000000000000006044820152606401610495565b336000908152600a602052604090205460ff1615610c5c5760405162461bcd60e51b815260206004820181905260248201527f414444524553535f4841535f414c52454144595f4d494e5445445f544f4b454e6044820152606401610495565b82610c6633611515565b14610ca55760405162461bcd60e51b815260206004820152600f60248201526e135154d4d051d157d2539590531251608a1b6044820152606401610495565b610ce58383838080601f01602080910402602001604051908101604052809392919081815260200183838082843760009201919091525061155592505050565b610d315760405162461bcd60e51b815260206004820152601b60248201527f5349474e41545552455f56414c49444154494f4e5f4641494c454400000000006044820152606401610495565b336000818152600a60209081526040808320805460ff1916600190811790915581519283019091529181526105839291908190610fb3565b6004546001600160a01b03163314610d935760405162461bcd60e51b815260040161049590612758565b6107d0610da082846127c9565b600160005260036020527fa15bc60c955c405d20d9149c709e2460f1c2d9a497496a7f46004d1772c3054c54610dd691906127b1565b1115610e155760405162461bcd60e51b815260206004820152600e60248201526d4d494e545f544f4f5f4c4152474560901b6044820152606401610495565b60005b82811015610e7457610e62848483818110610e3557610e356128ae565b9050602002016020810190610e4a9190612068565b60018460405180602001604052806000815250610fb3565b80610e6c81612867565b915050610e18565b50505050565b6004546001600160a01b03163314610ea45760405162461bcd60e51b815260040161049590612758565b61095481611582565b600960205260009081526040902080546106d8906127ff565b60008211610f0e5760405162461bcd60e51b8152602060048201526015602482015274414d4f554e545f43414e4e4f545f42455f5a45524f60581b6044820152606401610495565b6108b58585858585611595565b6004546001600160a01b03163314610f455760405162461bcd60e51b815260040161049590612758565b6001600160a01b038116610faa5760405162461bcd60e51b815260206004820152602660248201527f4f776e61626c653a206e6577206f776e657220697320746865207a65726f206160448201526564647265737360d01b6064820152608401610495565b6109548161135a565b6001600160a01b0384166110135760405162461bcd60e51b815260206004820152602160248201527f455243313135353a206d696e7420746f20746865207a65726f206164647265736044820152607360f81b6064820152608401610495565b33611033816000876110248861161c565b61102d8861161c565b87611667565b6000848152602081815260408083206001600160a01b0389168452909152812080548592906110639084906127b1565b909155505060408051858152602081018590526001600160a01b0380881692600092918516917fc3d58168c5ae7397731d063d5bbf3d657854427343f4c083240f7aacaa2d0f62910160405180910390a46108b5816000878787876116c2565b6060600280546107a0906127ff565b81518351146111345760405162461bcd60e51b815260206004820152602860248201527f455243313135353a2069647320616e6420616d6f756e7473206c656e677468206044820152670dad2e6dac2e8c6d60c31b6064820152608401610495565b6001600160a01b03841661115a5760405162461bcd60e51b8152600401610495906126c9565b33611169818787878787611667565b60005b845181101561124f576000858281518110611189576111896128ae565b6020026020010151905060008583815181106111a7576111a76128ae565b602090810291909101810151600084815280835260408082206001600160a01b038e1683529093529190912054909150818110156111f75760405162461bcd60e51b81526004016104959061270e565b6000838152602081815260408083206001600160a01b038e8116855292528083208585039055908b168252812080548492906112349084906127b1565b925050819055505050508061124890612867565b905061116c565b50846001600160a01b0316866001600160a01b0316826001600160a01b03167f4a39dc06d4c0dbc64b70af90fd698a233a518aa5d07e595d983b8c0526c8f7fb878760405161129f929190612640565b60405180910390a46112b5818787878787611836565b505050505050565b600454600160a01b900460ff1661130d5760405162461bcd60e51b815260206004820152601460248201527314185d5cd8589b194e881b9bdd081c185d5cd95960621b6044820152606401610495565b6004805460ff60a01b191690557f5db9ee0a495bf2e6ff9c91a7834c1ba4fdd244a5e8aa4e537bd38aeae4b073aa335b6040516001600160a01b03909116815260200160405180910390a1565b600480546001600160a01b038381166001600160a01b0319831681179093556040519116919082907f8be0079c531659141344cd1fd0a4f28419497f9722a3daafe3b4186f6b6457e090600090a35050565b600454600160a01b900460ff16156113f95760405162461bcd60e51b815260206004820152601060248201526f14185d5cd8589b194e881c185d5cd95960821b6044820152606401610495565b6004805460ff60a01b1916600160a01b1790557f62e78cea01bee320cd4e420270b5ea74000d11b0c9f74754ebdbfc544b05a25861133d3390565b816001600160a01b0316836001600160a01b031614156114a85760405162461bcd60e51b815260206004820152602960248201527f455243313135353a2073657474696e6720617070726f76616c20737461747573604482015268103337b91039b2b63360b91b6064820152608401610495565b6001600160a01b03838116600081815260016020908152604080832094871680845294825291829020805460ff191686151590811790915591519182527f17307eab39ab6107e8899845ad3d59bd9653f200f220920489ca2b5937696c31910160405180910390a3505050565b6040516bffffffffffffffffffffffff19606083901b1660208201526000906034015b604051602081830303815290604052805190602001209050919050565b600061156a8261156485611900565b9061193b565b6007546001600160a01b039182169116149392505050565b8051610b7c906002906020840190611ec8565b6001600160a01b0385163314806115b157506115b1853361040e565b61160f5760405162461bcd60e51b815260206004820152602960248201527f455243313135353a2063616c6c6572206973206e6f74206f776e6572206e6f7260448201526808185c1c1c9bdd995960ba1b6064820152608401610495565b6108b58585858585611957565b60408051600180825281830190925260609160009190602080830190803683370190505090508281600081518110611656576116566128ae565b602090810291909101015292915050565b600454600160a01b900460ff16156116b45760405162461bcd60e51b815260206004820152601060248201526f14185d5cd8589b194e881c185d5cd95960821b6044820152606401610495565b6112b5868686868686611a6b565b6001600160a01b0384163b156112b55760405163f23a6e6160e01b81526001600160a01b0385169063f23a6e619061170690899089908890889088906004016125e8565b602060405180830381600087803b15801561172057600080fd5b505af1925050508015611750575060408051601f3d908101601f1916820190925261174d9181019061244a565b60015b6117fd5761175c6128da565b806308c379a0141561179657506117716128f6565b8061177c5750611798565b8060405162461bcd60e51b8152600401610495919061266e565b505b60405162461bcd60e51b815260206004820152603460248201527f455243313135353a207472616e7366657220746f206e6f6e20455243313135356044820152732932b1b2b4bb32b91034b6b83632b6b2b73a32b960611b6064820152608401610495565b6001600160e01b0319811663f23a6e6160e01b1461182d5760405162461bcd60e51b815260040161049590612681565b50505050505050565b6001600160a01b0384163b156112b55760405163bc197c8160e01b81526001600160a01b0385169063bc197c819061187a908990899088908890889060040161258a565b602060405180830381600087803b15801561189457600080fd5b505af19250505080156118c4575060408051601f3d908101601f191682019092526118c19181019061244a565b60015b6118d05761175c6128da565b6001600160e01b0319811663bc197c8160e01b1461182d5760405162461bcd60e51b815260040161049590612681565b6040517f19457468657265756d205369676e6564204d6573736167653a0a3332000000006020820152603c8101829052600090605c01611538565b600080600061194a8585611b77565b91509150610aad81611be7565b6001600160a01b03841661197d5760405162461bcd60e51b8152600401610495906126c9565b3361198d8187876110248861161c565b6000848152602081815260408083206001600160a01b038a168452909152902054838110156119ce5760405162461bcd60e51b81526004016104959061270e565b6000858152602081815260408083206001600160a01b038b8116855292528083208785039055908816825281208054869290611a0b9084906127b1565b909155505060408051868152602081018690526001600160a01b03808916928a821692918616917fc3d58168c5ae7397731d063d5bbf3d657854427343f4c083240f7aacaa2d0f62910160405180910390a461182d8288888888886116c2565b6001600160a01b038516611af25760005b8351811015611af057828181518110611a9757611a976128ae565b602002602001015160036000868481518110611ab557611ab56128ae565b602002602001015181526020019081526020016000206000828254611ada91906127b1565b90915550611ae9905081612867565b9050611a7c565b505b6001600160a01b0384166112b55760005b835181101561182d57828181518110611b1e57611b1e6128ae565b602002602001015160036000868481518110611b3c57611b3c6128ae565b602002602001015181526020019081526020016000206000828254611b6191906127e8565b90915550611b70905081612867565b9050611b03565b600080825160411415611bae5760208301516040840151606085015160001a611ba287828585611da2565b94509450505050611be0565b825160401415611bd85760208301516040840151611bcd868383611e8f565b935093505050611be0565b506000905060025b9250929050565b6000816004811115611bfb57611bfb612898565b1415611c045750565b6001816004811115611c1857611c18612898565b1415611c665760405162461bcd60e51b815260206004820152601860248201527f45434453413a20696e76616c6964207369676e617475726500000000000000006044820152606401610495565b6002816004811115611c7a57611c7a612898565b1415611cc85760405162461bcd60e51b815260206004820152601f60248201527f45434453413a20696e76616c6964207369676e6174757265206c656e677468006044820152606401610495565b6003816004811115611cdc57611cdc612898565b1415611d355760405162461bcd60e51b815260206004820152602260248201527f45434453413a20696e76616c6964207369676e6174757265202773272076616c604482015261756560f01b6064820152608401610495565b6004816004811115611d4957611d49612898565b14156109545760405162461bcd60e51b815260206004820152602260248201527f45434453413a20696e76616c6964207369676e6174757265202776272076616c604482015261756560f01b6064820152608401610495565b6000807f7fffffffffffffffffffffffffffffff5d576e7357a4501ddfe92f46681b20a0831115611dd95750600090506003611e86565b8460ff16601b14158015611df157508460ff16601c14155b15611e025750600090506004611e86565b6040805160008082526020820180845289905260ff881692820192909252606081018690526080810185905260019060a0016020604051602081039080840390855afa158015611e56573d6000803e3d6000fd5b5050604051601f1901519150506001600160a01b038116611e7f57600060019250925050611e86565b9150600090505b94509492505050565b6000806001600160ff1b03831681611eac60ff86901c601b6127b1565b9050611eba87828885611da2565b935093505050935093915050565b828054611ed4906127ff565b90600052602060002090601f016020900481019282611ef65760008555611f3c565b82601f10611f0f57805160ff1916838001178555611f3c565b82800160010185558215611f3c579182015b82811115611f3c578251825591602001919060010190611f21565b50611f48929150611f4c565b5090565b5b80821115611f485760008155600101611f4d565b80356001600160a01b0381168114611f7857600080fd5b919050565b600082601f830112611f8e57600080fd5b81356020611f9b8261278d565b604051611fa8828261283a565b8381528281019150858301600585901b87018401881015611fc857600080fd5b60005b85811015611fe757813584529284019290840190600101611fcb565b5090979650505050505050565b600082601f83011261200557600080fd5b813567ffffffffffffffff81111561201f5761201f6128c4565b604051612036601f8301601f19166020018261283a565b81815284602083860101111561204b57600080fd5b816020850160208301376000918101602001919091529392505050565b60006020828403121561207a57600080fd5b61208382611f61565b9392505050565b6000806040838503121561209d57600080fd5b6120a683611f61565b91506120b460208401611f61565b90509250929050565b600080600080600060a086880312156120d557600080fd5b6120de86611f61565b94506120ec60208701611f61565b9350604086013567ffffffffffffffff8082111561210957600080fd5b61211589838a01611f7d565b9450606088013591508082111561212b57600080fd5b61213789838a01611f7d565b9350608088013591508082111561214d57600080fd5b5061215a88828901611ff4565b9150509295509295909350565b600080600080600060a0868803121561217f57600080fd5b61218886611f61565b945061219660208701611f61565b93506040860135925060608601359150608086013567ffffffffffffffff8111156121c057600080fd5b61215a88828901611ff4565b600080604083850312156121df57600080fd5b6121e883611f61565b9150602083013580151581146121fd57600080fd5b809150509250929050565b6000806040838503121561221b57600080fd5b61222483611f61565b946020939093013593505050565b60008060006060848603121561224757600080fd5b61225084611f61565b95602085013595506040909401359392505050565b60008060006040848603121561227a57600080fd5b833567ffffffffffffffff8082111561229257600080fd5b818601915086601f8301126122a657600080fd5b8135818111156122b557600080fd5b8760208260051b85010111156122ca57600080fd5b6020928301989097509590910135949350505050565b600080604083850312156122f357600080fd5b823567ffffffffffffffff8082111561230b57600080fd5b818501915085601f83011261231f57600080fd5b8135602061232c8261278d565b604051612339828261283a565b8381528281019150858301600585901b870184018b101561235957600080fd5b600096505b848710156123835761236f81611f61565b83526001969096019591830191830161235e565b509650508601359250508082111561239a57600080fd5b506123a785828601611f7d565b9150509250929050565b6000806000604084860312156123c657600080fd5b83359250602084013567ffffffffffffffff808211156123e557600080fd5b818601915086601f8301126123f957600080fd5b81358181111561240857600080fd5b87602082850101111561241a57600080fd5b6020830194508093505050509250925092565b60006020828403121561243f57600080fd5b813561208381612980565b60006020828403121561245c57600080fd5b815161208381612980565b60006020828403121561247957600080fd5b813567ffffffffffffffff81111561249057600080fd5b61249c84828501611ff4565b949350505050565b600080604083850312156124b757600080fd5b823567ffffffffffffffff8111156124ce57600080fd5b6124da85828601611ff4565b95602094909401359450505050565b6000602082840312156124fb57600080fd5b5035919050565b600081518084526020808501945080840160005b8381101561253257815187529582019590820190600101612516565b509495945050505050565b6000815180845260005b8181101561256357602081850181015186830182015201612547565b81811115612575576000602083870101525b50601f01601f19169290920160200192915050565b6001600160a01b0386811682528516602082015260a0604082018190526000906125b690830186612502565b82810360608401526125c88186612502565b905082810360808401526125dc818561253d565b98975050505050505050565b6001600160a01b03868116825285166020820152604081018490526060810183905260a0608082018190526000906126229083018461253d565b979650505050505050565b6020815260006120836020830184612502565b6040815260006126536040830185612502565b82810360208401526126658185612502565b95945050505050565b602081526000612083602083018461253d565b60208082526028908201527f455243313135353a204552433131353552656365697665722072656a656374656040820152676420746f6b656e7360c01b606082015260800190565b60208082526025908201527f455243313135353a207472616e7366657220746f20746865207a65726f206164604082015264647265737360d81b606082015260800190565b6020808252602a908201527f455243313135353a20696e73756666696369656e742062616c616e636520666f60408201526939103a3930b739b332b960b11b606082015260800190565b6020808252818101527f4f776e61626c653a2063616c6c6572206973206e6f7420746865206f776e6572604082015260600190565b600067ffffffffffffffff8211156127a7576127a76128c4565b5060051b60200190565b600082198211156127c4576127c4612882565b500190565b60008160001904831182151516156127e3576127e3612882565b500290565b6000828210156127fa576127fa612882565b500390565b600181811c9082168061281357607f821691505b6020821081141561283457634e487b7160e01b600052602260045260246000fd5b50919050565b601f8201601f1916810167ffffffffffffffff81118282101715612860576128606128c4565b6040525050565b600060001982141561287b5761287b612882565b5060010190565b634e487b7160e01b600052601160045260246000fd5b634e487b7160e01b600052602160045260246000fd5b634e487b7160e01b600052603260045260246000fd5b634e487b7160e01b600052604160045260246000fd5b600060033d11156128f35760046000803e5060005160e01c5b90565b600060443d10156129045790565b6040516003193d81016004833e81513d67ffffffffffffffff816024840111818411171561293457505050505090565b828501915081518181111561294c5750505050505090565b843d87010160208285010111156129665750505050505090565b6129756020828601018761283a565b509095945050505050565b6001600160e01b03198116811461095457600080fdfea26469706673582212200d08f95472fe085100e4d7c3b80f27a84d8962042952f25e9a73b47f9b4411f964736f6c63430008070033",
  "immutableReferences": {},
  "source": "// SPDX-License-Identifier: MIT\npragma solidity ^0.8.7;\n\n/***\n *            _     _       _       _     _       __       _         \n *      /\\/\\ (_) __| |_ __ (_) __ _| |__ | |_    / /  __ _| |__  ___ \n *     /    \\| |/ _` | '_ \\| |/ _` | '_ \\| __|  / /  / _` | '_ \\/ __|\n *    / /\\/\\ \\ | (_| | | | | | (_| | | | | |_  / /__| (_| | |_) \\__ \\\n *    \\/    \\/_|\\__,_|_| |_|_|\\__, |_| |_|\\__| \\____/\\__,_|_.__/|___/\n *                            |___/                                  \n */\n\nimport \"@openzeppelin/contracts/token/ERC1155/extensions/ERC1155Supply.sol\";\nimport \"@openzeppelin/contracts/access/Ownable.sol\";\nimport \"@openzeppelin/contracts/security/Pausable.sol\";\nimport \"@openzeppelin/contracts/utils/cryptography/ECDSA.sol\";\n\ncontract MidnightLabs is ERC1155Supply, Ownable, Pausable {\n    using ECDSA for bytes32;\n\n    // Contract name\n    string public name;\n    // Contract symbol\n    string public symbol;\n\n    uint256 public constant TOKEN_ID = 1;\n    uint256 public constant MAX_TOKENS = 2000;\n\n    // Used to validate authorized mint addresses\n    address private signerAddress = 0xabcB40408a94E94f563d64ded69A75a3098cBf59;\n\n    // Used to ensure each new token id can only be minted once by the owner\n    mapping (uint256 => bool) public collectionMinted;\n    mapping (uint256 => string) public tokenURI;\n    mapping (address => bool) public hasAddressMinted;\n\n    constructor(\n        string memory uriBase,\n        string memory _name,\n        string memory _symbol\n    ) ERC1155(uriBase) {\n        name = _name;\n        symbol = _symbol;\n        tokenURI[TOKEN_ID] = uriBase;\n    }\n\n    /**\n     * Returns the custom URI for each token id. Overrides the default ERC-1155 single URI.\n     */\n    function uri(uint256 tokenId) public view override returns (string memory) {\n        // If no URI exists for the specific id requested, fallback to the default ERC-1155 URI.\n        if (bytes(tokenURI[tokenId]).length == 0) {\n            return super.uri(tokenId);\n        }\n        return tokenURI[tokenId];\n    }\n\n    /**\n     * Sets a URI for a specific token id.\n     */\n    function setURI(string memory newTokenURI, uint256 tokenId) public onlyOwner {\n        tokenURI[tokenId] = newTokenURI;\n    }\n\n    /**\n     * Set the global default ERC-1155 base URI to be used for any tokens without unique URIs\n     */\n    function setGlobalURI(string memory newTokenURI) public onlyOwner {\n        _setURI(newTokenURI);\n    }\n\n    function setSignerAddress(address _signerAddress) external onlyOwner {\n        require(_signerAddress != address(0));\n        signerAddress = _signerAddress;\n    }\n\n    function pause() public onlyOwner {\n        _pause();\n    }\n\n    function unpause() public onlyOwner {\n        _unpause();\n    }\n\n    function verifyAddressSigner(bytes32 messageHash, bytes memory signature) private view returns (bool) {\n        return signerAddress == messageHash.toEthSignedMessageHash().recover(signature);\n    }\n\n    function hashMessage(address sender) private pure returns (bytes32) {\n        return keccak256(abi.encodePacked(sender));\n    }\n\n    /**\n     * @notice Allow minting of a single token by whitelisted addresses only\n     */\n    function mint(bytes32 messageHash, bytes calldata signature) external {\n        require(totalSupply(TOKEN_ID) < MAX_TOKENS, \"MAX_TOKEN_SUPPLY_REACHED\");\n        require(hasAddressMinted[msg.sender] == false, \"ADDRESS_HAS_ALREADY_MINTED_TOKEN\");\n        require(hashMessage(msg.sender) == messageHash, \"MESSAGE_INVALID\");\n        require(verifyAddressSigner(messageHash, signature), \"SIGNATURE_VALIDATION_FAILED\");\n\n        hasAddressMinted[msg.sender] = true;\n\n        _mint(msg.sender, TOKEN_ID, 1, \"\");\n\n    }\n\n    /**\n     * @notice Allow minting of any future tokens as desired as part of the same collection,\n     * which can then be transferred to another contract for distribution purposes\n     */\n    function adminMint(address account, uint256 id, uint256 amount) public onlyOwner\n    {\n        require(!collectionMinted[id], \"CANNOT_MINT_EXISTING_TOKEN_ID\");\n        require(id != TOKEN_ID, \"CANNOT_MINT_EXISTING_TOKEN_ID\");\n        collectionMinted[id] = true;\n        _mint(account, id, amount, \"\");\n    }\n\n    /**\n     * @notice Allow owner to send `mintNumber` tokens without cost to multiple addresses\n     */\n    function gift(address[] calldata receivers, uint256 numberOfTokens) external onlyOwner {\n        require((totalSupply(TOKEN_ID) + (receivers.length * numberOfTokens)) <= MAX_TOKENS, \"MINT_TOO_LARGE\");\n\n        for (uint256 i = 0; i < receivers.length; i++) {\n            _mint(receivers[i], TOKEN_ID, numberOfTokens, \"\");\n        }\n    }\n\n    /**\n     * @notice Override ERC1155 such that zero amount token transfers are disallowed to prevent arbitrary creation of new tokens in the collection.\n     */\n    function safeTransferFrom(\n        address from,\n        address to,\n        uint256 id,\n        uint256 amount,\n        bytes memory data\n    ) public override {\n        require(amount > 0, \"AMOUNT_CANNOT_BE_ZERO\");\n        return super.safeTransferFrom(from, to, id, amount, data);\n    }\n\n    /**\n     * @notice When the contract is paused, all token transfers are prevented in case of emergency.\n     */\n    function _beforeTokenTransfer(address operator, address from, address to, uint256[] memory ids, uint256[] memory amounts, bytes memory data)\n        internal\n        whenNotPaused\n        override\n    {\n        super._beforeTokenTransfer(operator, from, to, ids, amounts, data);\n    }\n\n    function withdraw() external onlyOwner {\n        require(address(this).balance > 0, \"BALANCE_IS_ZERO\");\n        payable(msg.sender).transfer(address(this).balance);\n    }\n}",
  "sourcePath": "/Users/jake/code/midnight-labs-contracts/contracts/MidnightLabs.sol",
  "compiler": {
    "name": "solc",
    "version": "0.8.7+commit.e28d00a7.Emscripten.clang"
  },
  "schemaVersion": "3.4.6",
  "updatedAt": "2022-05-05T17:25:39.591Z",
  "devdoc": {
    "kind": "dev",
    "methods": {
      "balanceOf(address,uint256)": {
        "details": "See {IERC1155-balanceOf}. Requirements: - `account` cannot be the zero address."
      },
      "balanceOfBatch(address[],uint256[])": {
        "details": "See {IERC1155-balanceOfBatch}. Requirements: - `accounts` and `ids` must have the same length."
      },
      "exists(uint256)": {
        "details": "Indicates whether any token exist with a given id, or not."
      },
      "isApprovedForAll(address,address)": {
        "details": "See {IERC1155-isApprovedForAll}."
      },
      "owner()": {
        "details": "Returns the address of the current owner."
      },
      "paused()": {
        "details": "Returns true if the contract is paused, and false otherwise."
      },
      "renounceOwnership()": {
        "details": "Leaves the contract without owner. It will not be possible to call `onlyOwner` functions anymore. Can only be called by the current owner. NOTE: Renouncing ownership will leave the contract without an owner, thereby removing any functionality that is only available to the owner."
      },
      "safeBatchTransferFrom(address,address,uint256[],uint256[],bytes)": {
        "details": "See {IERC1155-safeBatchTransferFrom}."
      },
      "setApprovalForAll(address,bool)": {
        "details": "See {IERC1155-setApprovalForAll}."
      },
      "supportsInterface(bytes4)": {
        "details": "See {IERC165-supportsInterface}."
      },
      "totalSupply(uint256)": {
        "details": "Total amount of tokens in with a given id."
      },
      "transferOwnership(address)": {
        "details": "Transfers ownership of the contract to a new account (`newOwner`). Can only be called by the current owner."
      }
    },
    "version": 1
  },
  "userdoc": {
    "kind": "user",
    "methods": {
      "adminMint(address,uint256,uint256)": {
        "notice": "Allow minting of any future tokens as desired as part of the same collection, which can then be transferred to another contract for distribution purposes"
      },
      "gift(address[],uint256)": {
        "notice": "Allow owner to send `mintNumber` tokens without cost to multiple addresses"
      },
      "mint(bytes32,bytes)": {
        "notice": "Allow minting of a single token by whitelisted addresses only"
      },
      "safeTransferFrom(address,address,uint256,uint256,bytes)": {
        "notice": "Override ERC1155 such that zero amount token transfers are disallowed to prevent arbitrary creation of new tokens in the collection."
      },
      "setGlobalURI(string)": {
        "notice": "Set the global default ERC-1155 base URI to be used for any tokens without unique URIs"
      },
      "setURI(string,uint256)": {
        "notice": "Sets a URI for a specific token id."
      },
      "uri(uint256)": {
        "notice": "Returns the custom URI for each token id. Overrides the default ERC-1155 single URI."
      }
    },
    "version": 1
  }
}