{
  "contractName": "ZenAcademy",
  "abi": [
    {
      "inputs": [
        {
          "internalType": "string",
          "name": "uriBase",
          "type": "string"
        },
        {
          "internalType": "string",
          "name": "uriGenesis",
          "type": "string"
        },
        {
          "internalType": "string",
          "name": "uri333",
          "type": "string"
        },
        {
          "internalType": "string",
          "name": "_name",
          "type": "string"
        },
        {
          "internalType": "string",
          "name": "_symbol",
          "type": "string"
        }
      ],
      "stateMutability": "nonpayable",
      "type": "constructor"
    },
    {
      "anonymous": false,
      "inputs": [
        {
          "indexed": true,
          "internalType": "address",
          "name": "account",
          "type": "address"
        },
        {
          "indexed": true,
          "internalType": "address",
          "name": "operator",
          "type": "address"
        },
        {
          "indexed": false,
          "internalType": "bool",
          "name": "approved",
          "type": "bool"
        }
      ],
      "name": "ApprovalForAll",
      "type": "event"
    },
    {
      "anonymous": false,
      "inputs": [
        {
          "indexed": true,
          "internalType": "address",
          "name": "previousOwner",
          "type": "address"
        },
        {
          "indexed": true,
          "internalType": "address",
          "name": "newOwner",
          "type": "address"
        }
      ],
      "name": "OwnershipTransferred",
      "type": "event"
    },
    {
      "anonymous": false,
      "inputs": [
        {
          "indexed": false,
          "internalType": "address",
          "name": "account",
          "type": "address"
        }
      ],
      "name": "Paused",
      "type": "event"
    },
    {
      "anonymous": false,
      "inputs": [
        {
          "indexed": true,
          "internalType": "address",
          "name": "operator",
          "type": "address"
        },
        {
          "indexed": true,
          "internalType": "address",
          "name": "from",
          "type": "address"
        },
        {
          "indexed": true,
          "internalType": "address",
          "name": "to",
          "type": "address"
        },
        {
          "indexed": false,
          "internalType": "uint256[]",
          "name": "ids",
          "type": "uint256[]"
        },
        {
          "indexed": false,
          "internalType": "uint256[]",
          "name": "values",
          "type": "uint256[]"
        }
      ],
      "name": "TransferBatch",
      "type": "event"
    },
    {
      "anonymous": false,
      "inputs": [
        {
          "indexed": true,
          "internalType": "address",
          "name": "operator",
          "type": "address"
        },
        {
          "indexed": true,
          "internalType": "address",
          "name": "from",
          "type": "address"
        },
        {
          "indexed": true,
          "internalType": "address",
          "name": "to",
          "type": "address"
        },
        {
          "indexed": false,
          "internalType": "uint256",
          "name": "id",
          "type": "uint256"
        },
        {
          "indexed": false,
          "internalType": "uint256",
          "name": "value",
          "type": "uint256"
        }
      ],
      "name": "TransferSingle",
      "type": "event"
    },
    {
      "anonymous": false,
      "inputs": [
        {
          "indexed": false,
          "internalType": "string",
          "name": "value",
          "type": "string"
        },
        {
          "indexed": true,
          "internalType": "uint256",
          "name": "id",
          "type": "uint256"
        }
      ],
      "name": "URI",
      "type": "event"
    },
    {
      "anonymous": false,
      "inputs": [
        {
          "indexed": false,
          "internalType": "address",
          "name": "account",
          "type": "address"
        }
      ],
      "name": "Unpaused",
      "type": "event"
    },
    {
      "inputs": [],
      "name": "MAX_TOKENS_333",
      "outputs": [
        {
          "internalType": "uint256",
          "name": "",
          "type": "uint256"
        }
      ],
      "stateMutability": "view",
      "type": "function"
    },
    {
      "inputs": [],
      "name": "TOKEN_ID_333",
      "outputs": [
        {
          "internalType": "uint256",
          "name": "",
          "type": "uint256"
        }
      ],
      "stateMutability": "view",
      "type": "function"
    },
    {
      "inputs": [],
      "name": "TOKEN_ID_GENESIS",
      "outputs": [
        {
          "internalType": "uint256",
          "name": "",
          "type": "uint256"
        }
      ],
      "stateMutability": "view",
      "type": "function"
    },
    {
      "inputs": [],
      "name": "TOKEN_PRICE_333",
      "outputs": [
        {
          "internalType": "uint256",
          "name": "",
          "type": "uint256"
        }
      ],
      "stateMutability": "view",
      "type": "function"
    },
    {
      "inputs": [],
      "name": "TOKEN_PRICE_GENESIS",
      "outputs": [
        {
          "internalType": "uint256",
          "name": "",
          "type": "uint256"
        }
      ],
      "stateMutability": "view",
      "type": "function"
    },
    {
      "inputs": [
        {
          "internalType": "address",
          "name": "account",
          "type": "address"
        },
        {
          "internalType": "uint256",
          "name": "id",
          "type": "uint256"
        }
      ],
      "name": "balanceOf",
      "outputs": [
        {
          "internalType": "uint256",
          "name": "",
          "type": "uint256"
        }
      ],
      "stateMutability": "view",
      "type": "function"
    },
    {
      "inputs": [
        {
          "internalType": "address[]",
          "name": "accounts",
          "type": "address[]"
        },
        {
          "internalType": "uint256[]",
          "name": "ids",
          "type": "uint256[]"
        }
      ],
      "name": "balanceOfBatch",
      "outputs": [
        {
          "internalType": "uint256[]",
          "name": "",
          "type": "uint256[]"
        }
      ],
      "stateMutability": "view",
      "type": "function"
    },
    {
      "inputs": [
        {
          "internalType": "uint256",
          "name": "",
          "type": "uint256"
        }
      ],
      "name": "collectionMinted",
      "outputs": [
        {
          "internalType": "bool",
          "name": "",
          "type": "bool"
        }
      ],
      "stateMutability": "view",
      "type": "function"
    },
    {
      "inputs": [
        {
          "internalType": "uint256",
          "name": "id",
          "type": "uint256"
        }
      ],
      "name": "exists",
      "outputs": [
        {
          "internalType": "bool",
          "name": "",
          "type": "bool"
        }
      ],
      "stateMutability": "view",
      "type": "function"
    },
    {
      "inputs": [
        {
          "internalType": "address",
          "name": "",
          "type": "address"
        }
      ],
      "name": "hasAddressMinted333",
      "outputs": [
        {
          "internalType": "bool",
          "name": "",
          "type": "bool"
        }
      ],
      "stateMutability": "view",
      "type": "function"
    },
    {
      "inputs": [
        {
          "internalType": "address",
          "name": "account",
          "type": "address"
        },
        {
          "internalType": "address",
          "name": "operator",
          "type": "address"
        }
      ],
      "name": "isApprovedForAll",
      "outputs": [
        {
          "internalType": "bool",
          "name": "",
          "type": "bool"
        }
      ],
      "stateMutability": "view",
      "type": "function"
    },
    {
      "inputs": [],
      "name": "name",
      "outputs": [
        {
          "internalType": "string",
          "name": "",
          "type": "string"
        }
      ],
      "stateMutability": "view",
      "type": "function"
    },
    {
      "inputs": [],
      "name": "owner",
      "outputs": [
        {
          "internalType": "address",
          "name": "",
          "type": "address"
        }
      ],
      "stateMutability": "view",
      "type": "function"
    },
    {
      "inputs": [],
      "name": "paused",
      "outputs": [
        {
          "internalType": "bool",
          "name": "",
          "type": "bool"
        }
      ],
      "stateMutability": "view",
      "type": "function"
    },
    {
      "inputs": [],
      "name": "renounceOwnership",
      "outputs": [],
      "stateMutability": "nonpayable",
      "type": "function"
    },
    {
      "inputs": [
        {
          "internalType": "address",
          "name": "from",
          "type": "address"
        },
        {
          "internalType": "address",
          "name": "to",
          "type": "address"
        },
        {
          "internalType": "uint256[]",
          "name": "ids",
          "type": "uint256[]"
        },
        {
          "internalType": "uint256[]",
          "name": "amounts",
          "type": "uint256[]"
        },
        {
          "internalType": "bytes",
          "name": "data",
          "type": "bytes"
        }
      ],
      "name": "safeBatchTransferFrom",
      "outputs": [],
      "stateMutability": "nonpayable",
      "type": "function"
    },
    {
      "inputs": [],
      "name": "saleIsActive333",
      "outputs": [
        {
          "internalType": "bool",
          "name": "",
          "type": "bool"
        }
      ],
      "stateMutability": "view",
      "type": "function"
    },
    {
      "inputs": [],
      "name": "saleIsActiveGenesis",
      "outputs": [
        {
          "internalType": "bool",
          "name": "",
          "type": "bool"
        }
      ],
      "stateMutability": "view",
      "type": "function"
    },
    {
      "inputs": [
        {
          "internalType": "address",
          "name": "operator",
          "type": "address"
        },
        {
          "internalType": "bool",
          "name": "approved",
          "type": "bool"
        }
      ],
      "name": "setApprovalForAll",
      "outputs": [],
      "stateMutability": "nonpayable",
      "type": "function"
    },
    {
      "inputs": [
        {
          "internalType": "bytes4",
          "name": "interfaceId",
          "type": "bytes4"
        }
      ],
      "name": "supportsInterface",
      "outputs": [
        {
          "internalType": "bool",
          "name": "",
          "type": "bool"
        }
      ],
      "stateMutability": "view",
      "type": "function"
    },
    {
      "inputs": [],
      "name": "symbol",
      "outputs": [
        {
          "internalType": "string",
          "name": "",
          "type": "string"
        }
      ],
      "stateMutability": "view",
      "type": "function"
    },
    {
      "inputs": [
        {
          "internalType": "uint256",
          "name": "",
          "type": "uint256"
        }
      ],
      "name": "tokenURI",
      "outputs": [
        {
          "internalType": "string",
          "name": "",
          "type": "string"
        }
      ],
      "stateMutability": "view",
      "type": "function"
    },
    {
      "inputs": [
        {
          "internalType": "uint256",
          "name": "id",
          "type": "uint256"
        }
      ],
      "name": "totalSupply",
      "outputs": [
        {
          "internalType": "uint256",
          "name": "",
          "type": "uint256"
        }
      ],
      "stateMutability": "view",
      "type": "function"
    },
    {
      "inputs": [
        {
          "internalType": "address",
          "name": "newOwner",
          "type": "address"
        }
      ],
      "name": "transferOwnership",
      "outputs": [],
      "stateMutability": "nonpayable",
      "type": "function"
    },
    {
      "inputs": [
        {
          "internalType": "uint256",
          "name": "tokenId",
          "type": "uint256"
        }
      ],
      "name": "uri",
      "outputs": [
        {
          "internalType": "string",
          "name": "",
          "type": "string"
        }
      ],
      "stateMutability": "view",
      "type": "function"
    },
    {
      "inputs": [
        {
          "internalType": "string",
          "name": "newTokenURI",
          "type": "string"
        },
        {
          "internalType": "uint256",
          "name": "tokenId",
          "type": "uint256"
        }
      ],
      "name": "setURI",
      "outputs": [],
      "stateMutability": "nonpayable",
      "type": "function"
    },
    {
      "inputs": [
        {
          "internalType": "string",
          "name": "newTokenURI",
          "type": "string"
        }
      ],
      "name": "setGlobalURI",
      "outputs": [],
      "stateMutability": "nonpayable",
      "type": "function"
    },
    {
      "inputs": [
        {
          "internalType": "bool",
          "name": "newState",
          "type": "bool"
        }
      ],
      "name": "setGenesisSaleState",
      "outputs": [],
      "stateMutability": "nonpayable",
      "type": "function"
    },
    {
      "inputs": [
        {
          "internalType": "bool",
          "name": "newState",
          "type": "bool"
        }
      ],
      "name": "set333SaleState",
      "outputs": [],
      "stateMutability": "nonpayable",
      "type": "function"
    },
    {
      "inputs": [
        {
          "internalType": "address",
          "name": "_signerAddress",
          "type": "address"
        }
      ],
      "name": "setSignerAddress",
      "outputs": [],
      "stateMutability": "nonpayable",
      "type": "function"
    },
    {
      "inputs": [],
      "name": "lockGenesis",
      "outputs": [],
      "stateMutability": "nonpayable",
      "type": "function"
    },
    {
      "inputs": [],
      "name": "pause",
      "outputs": [],
      "stateMutability": "nonpayable",
      "type": "function"
    },
    {
      "inputs": [],
      "name": "unpause",
      "outputs": [],
      "stateMutability": "nonpayable",
      "type": "function"
    },
    {
      "inputs": [
        {
          "internalType": "uint256",
          "name": "numberOfTokens",
          "type": "uint256"
        }
      ],
      "name": "mintGenesis",
      "outputs": [],
      "stateMutability": "payable",
      "type": "function"
    },
    {
      "inputs": [
        {
          "internalType": "bytes32",
          "name": "messageHash",
          "type": "bytes32"
        },
        {
          "internalType": "bytes",
          "name": "signature",
          "type": "bytes"
        }
      ],
      "name": "mint333",
      "outputs": [],
      "stateMutability": "payable",
      "type": "function"
    },
    {
      "inputs": [
        {
          "internalType": "address",
          "name": "account",
          "type": "address"
        },
        {
          "internalType": "uint256",
          "name": "id",
          "type": "uint256"
        },
        {
          "internalType": "uint256",
          "name": "amount",
          "type": "uint256"
        }
      ],
      "name": "adminMint",
      "outputs": [],
      "stateMutability": "nonpayable",
      "type": "function"
    },
    {
      "inputs": [
        {
          "internalType": "address[]",
          "name": "receivers",
          "type": "address[]"
        },
        {
          "internalType": "uint256",
          "name": "numberOfTokens",
          "type": "uint256"
        }
      ],
      "name": "giftGenesis",
      "outputs": [],
      "stateMutability": "nonpayable",
      "type": "function"
    },
    {
      "inputs": [
        {
          "internalType": "address[]",
          "name": "receivers",
          "type": "address[]"
        },
        {
          "internalType": "uint256",
          "name": "numberOfTokens",
          "type": "uint256"
        }
      ],
      "name": "gift333",
      "outputs": [],
      "stateMutability": "nonpayable",
      "type": "function"
    },
    {
      "inputs": [
        {
          "internalType": "address",
          "name": "from",
          "type": "address"
        },
        {
          "internalType": "address",
          "name": "to",
          "type": "address"
        },
        {
          "internalType": "uint256",
          "name": "id",
          "type": "uint256"
        },
        {
          "internalType": "uint256",
          "name": "amount",
          "type": "uint256"
        },
        {
          "internalType": "bytes",
          "name": "data",
          "type": "bytes"
        }
      ],
      "name": "safeTransferFrom",
      "outputs": [],
      "stateMutability": "nonpayable",
      "type": "function"
    },
    {
      "inputs": [],
      "name": "withdraw",
      "outputs": [],
      "stateMutability": "nonpayable",
      "type": "function"
    }
  ],
  "bytecode": "0x6080604052600780546001600160b01b03191675abcb40408a94e94f563d64ded69a75a3098cbf5900001790553480156200003957600080fd5b50604051620034b5380380620034b58339810160408190526200005c9162000301565b84620000688162000139565b50620000743362000152565b6004805460ff60a01b19169055815162000096906005906020850190620001a4565b508051620000ac906006906020840190620001a4565b506001600052600960209081528451620000ec917f92e85d02570a8092d09a6e3a57665bc3815a2699a4074001bf1ccabf660f5a369190870190620001a4565b5061014d6000526009602090815283516200012d917ff5131b95e3e141f9dfbc5197fce89605f6d38860fb184fc321c7c77dbc1ce1929190860190620001a4565b50505050505062000435565b80516200014e906002906020840190620001a4565b5050565b600480546001600160a01b038381166001600160a01b0319831681179093556040519116919082907f8be0079c531659141344cd1fd0a4f28419497f9722a3daafe3b4186f6b6457e090600090a35050565b828054620001b290620003e2565b90600052602060002090601f016020900481019282620001d6576000855562000221565b82601f10620001f157805160ff191683800117855562000221565b8280016001018555821562000221579182015b828111156200022157825182559160200191906001019062000204565b506200022f92915062000233565b5090565b5b808211156200022f576000815560010162000234565b600082601f8301126200025c57600080fd5b81516001600160401b03808211156200027957620002796200041f565b604051601f8301601f19908116603f01168101908282118183101715620002a457620002a46200041f565b81604052838152602092508683858801011115620002c157600080fd5b600091505b83821015620002e55785820183015181830184015290820190620002c6565b83821115620002f75760008385830101525b9695505050505050565b600080600080600060a086880312156200031a57600080fd5b85516001600160401b03808211156200033257600080fd5b6200034089838a016200024a565b965060208801519150808211156200035757600080fd5b6200036589838a016200024a565b955060408801519150808211156200037c57600080fd5b6200038a89838a016200024a565b94506060880151915080821115620003a157600080fd5b620003af89838a016200024a565b93506080880151915080821115620003c657600080fd5b50620003d5888289016200024a565b9150509295509295909350565b600181811c90821680620003f757607f821691505b602082108114156200041957634e487b7160e01b600052602260045260246000fd5b50919050565b634e487b7160e01b600052604160045260246000fd5b61307080620004456000396000f3fe6080604052600436106101d95760003560e01c80638456cb59116100fe5780638456cb591461046b5780638da5cb5b146104805780639396cdf5146104a257806393d71368146104bc57806395d89b41146104dc5780639c6626f714610263578063a22cb465146104f1578063a2bb043c14610511578063b50d96c51461052c578063bd85b0391461053f578063c15d0e211461055f578063c87606731461057f578063c87b56dd14610594578063d7423031146105b4578063d94daece146105e4578063dff63243146105f9578063e985e9c51461060c578063f2047bb014610655578063f242432a14610671578063f2fde38b1461069157600080fd5b80624a84cb146101de578062fdd58e1461020057806301ffc9a7146102335780630347e1e614610263578063046dc1661461027957806306fdde03146102995780630e89341c146102bb57806311aa771f146102db5780632d6c37b4146102fa5780632eb2c2d61461032a5780633ccfd60b1461034a5780633f4ba83a1461035f5780634e1273f4146103745780634f558e79146103a15780635c975abb146103c15780636562e5ea146103d657806367db3b8f146103f65780636e500f2614610416578063715018a6146104365780637ba28b211461044b575b600080fd5b3480156101ea57600080fd5b506101fe6101f9366004612775565b6106b1565b005b34801561020c57600080fd5b5061022061021b36600461274b565b610781565b6040519081526020015b60405180910390f35b34801561023f57600080fd5b5061025361024e366004612988565b610813565b604051901515815260200161022a565b34801561026f57600080fd5b5061022061014d81565b34801561028557600080fd5b506101fe6102943660046125bf565b610865565b3480156102a557600080fd5b506102ae6108d1565b60405161022a9190612bdb565b3480156102c757600080fd5b506102ae6102d6366004612a42565b61095f565b3480156102e757600080fd5b5060075461025390610100900460ff1681565b34801561030657600080fd5b506102536103153660046125bf565b600a6020526000908152604090205460ff1681565b34801561033657600080fd5b506101fe610345366004612614565b610a2b565b34801561035657600080fd5b506101fe610ac2565b34801561036b57600080fd5b506101fe610b62565b34801561038057600080fd5b5061039461038f366004612822565b610b9b565b60405161022a9190612b9a565b3480156103ad57600080fd5b506102536103bc366004612a42565b610cc4565b3480156103cd57600080fd5b50610253610cd7565b3480156103e257600080fd5b506101fe6103f13660046128f2565b610ce7565b34801561040257600080fd5b506101fe6104113660046129fe565b610d52565b34801561042257600080fd5b506101fe6104313660046127a8565b610da0565b34801561044257600080fd5b506101fe610e6e565b34801561045757600080fd5b506101fe6104663660046127a8565b610ea7565b34801561047757600080fd5b506101fe610f97565b34801561048c57600080fd5b50610495610fce565b60405161022a9190612ae3565b3480156104ae57600080fd5b506007546102539060ff1681565b3480156104c857600080fd5b506101fe6104d73660046128f2565b610fdd565b3480156104e857600080fd5b506102ae611055565b3480156104fd57600080fd5b506101fe61050c366004612721565b611062565b34801561051d57600080fd5b5061022066753d533d96800081565b6101fe61053a36600461290d565b611071565b34801561054b57600080fd5b5061022061055a366004612a42565b6112b0565b34801561056b57600080fd5b506101fe61057a3660046129c2565b6112c2565b34801561058b57600080fd5b50610220600181565b3480156105a057600080fd5b506102ae6105af366004612a42565b6112fa565b3480156105c057600080fd5b506102536105cf366004612a42565b60086020526000908152604090205460ff1681565b3480156105f057600080fd5b506101fe611313565b6101fe610607366004612a42565b61136a565b34801561061857600080fd5b506102536106273660046125e1565b6001600160a01b03918216600090815260016020908152604080832093909416825291909152205460ff1690565b34801561066157600080fd5b50610220672e36895b5e0d000081565b34801561067d57600080fd5b506101fe61068c3660046126bd565b611460565b34801561069d57600080fd5b506101fe6106ac3660046125bf565b6114b5565b336106ba610fce565b6001600160a01b0316146106e95760405162461bcd60e51b81526004016106e090612d24565b60405180910390fd5b60008281526008602052604090205460ff16156107185760405162461bcd60e51b81526004016106e090612d59565b6001821415801561072b575061014d8214155b6107475760405162461bcd60e51b81526004016106e090612d59565b6000828152600860209081526040808320805460ff191660011790558051918201905290815261077c90849084908490611552565b505050565b60006001600160a01b0383166107ed5760405162461bcd60e51b815260206004820152602b60248201527f455243313135353a2062616c616e636520717565727920666f7220746865207a60448201526a65726f206164647265737360a81b60648201526084016106e0565b506000908152602081815260408083206001600160a01b03949094168352929052205490565b60006001600160e01b03198216636cdb3d1360e11b148061084457506001600160e01b031982166303a24d0760e21b145b8061085f57506301ffc9a760e01b6001600160e01b03198316145b92915050565b3361086e610fce565b6001600160a01b0316146108945760405162461bcd60e51b81526004016106e090612d24565b6001600160a01b0381166108a757600080fd5b600780546001600160a01b03909216620100000262010000600160b01b0319909216919091179055565b600580546108de90612e85565b80601f016020809104026020016040519081016040528092919081815260200182805461090a90612e85565b80156109575780601f1061092c57610100808354040283529160200191610957565b820191906000526020600020905b81548152906001019060200180831161093a57829003601f168201915b505050505081565b600081815260096020526040902080546060919061097c90612e85565b1515905061098d5761085f82611662565b600082815260096020526040902080546109a690612e85565b80601f01602080910402602001604051908101604052809291908181526020018280546109d290612e85565b8015610a1f5780601f106109f457610100808354040283529160200191610a1f565b820191906000526020600020905b815481529060010190602001808311610a0257829003601f168201915b50505050509050919050565b6001600160a01b038516331480610a475750610a478533610627565b610aae5760405162461bcd60e51b815260206004820152603260248201527f455243313135353a207472616e736665722063616c6c6572206973206e6f74206044820152711bdddb995c881b9bdc88185c1c1c9bdd995960721b60648201526084016106e0565b610abb8585858585611671565b5050505050565b33610acb610fce565b6001600160a01b031614610af15760405162461bcd60e51b81526004016106e090612d24565b60004711610b335760405162461bcd60e51b815260206004820152600f60248201526e42414c414e43455f49535f5a45524f60881b60448201526064016106e0565b60405133904780156108fc02916000818181858888f19350505050158015610b5f573d6000803e3d6000fd5b50565b33610b6b610fce565b6001600160a01b031614610b915760405162461bcd60e51b81526004016106e090612d24565b610b9961185c565b565b60608151835114610c005760405162461bcd60e51b815260206004820152602960248201527f455243313135353a206163636f756e747320616e6420696473206c656e677468604482015268040dad2e6dac2e8c6d60bb1b60648201526084016106e0565b600083516001600160401b03811115610c1b57610c1b612f49565b604051908082528060200260200182016040528015610c44578160200160208202803683370190505b50905060005b8451811015610cbc57610c8f858281518110610c6857610c68612f33565b6020026020010151858381518110610c8257610c82612f33565b6020026020010151610781565b828281518110610ca157610ca1612f33565b6020908102919091010152610cb581612eec565b9050610c4a565b509392505050565b600080610cd0836112b0565b1192915050565b600454600160a01b900460ff1690565b33610cf0610fce565b6001600160a01b031614610d165760405162461bcd60e51b81526004016106e090612d24565b60075460ff1615158115151415610d3f5760405162461bcd60e51b81526004016106e090612ca5565b6007805460ff1916911515919091179055565b33610d5b610fce565b6001600160a01b031614610d815760405162461bcd60e51b81526004016106e090612d24565b6000818152600960209081526040909120835161077c92850190612410565b33610da9610fce565b6001600160a01b031614610dcf5760405162461bcd60e51b81526004016106e090612d24565b6001600052600860205260008051602061301b8339815191525460ff1615610e095760405162461bcd60e51b81526004016106e090612de6565b60005b82811015610e6857610e56848483818110610e2957610e29612f33565b9050602002016020810190610e3e91906125bf565b60018460405180602001604052806000815250611552565b80610e6081612eec565b915050610e0c565b50505050565b33610e77610fce565b6001600160a01b031614610e9d5760405162461bcd60e51b81526004016106e090612d24565b610b9960006118ee565b33610eb0610fce565b6001600160a01b031614610ed65760405162461bcd60e51b81526004016106e090612d24565b61014d610ee38284612e4f565b610eee61014d6112b0565b610ef89190612e37565b1115610f375760405162461bcd60e51b815260206004820152600e60248201526d4d494e545f544f4f5f4c4152474560901b60448201526064016106e0565b60005b82811015610e6857610f85848483818110610f5757610f57612f33565b9050602002016020810190610f6c91906125bf565b61014d8460405180602001604052806000815250611552565b80610f8f81612eec565b915050610f3a565b33610fa0610fce565b6001600160a01b031614610fc65760405162461bcd60e51b81526004016106e090612d24565b610b99611940565b6004546001600160a01b031690565b33610fe6610fce565b6001600160a01b03161461100c5760405162461bcd60e51b81526004016106e090612d24565b60075460ff610100909104161515811515141561103b5760405162461bcd60e51b81526004016106e090612ca5565b600780549115156101000261ff0019909216919091179055565b600680546108de90612e85565b61106d3383836119a0565b5050565b600754610100900460ff166110985760405162461bcd60e51b81526004016106e090612d90565b34672e36895b5e0d0000146110bf5760405162461bcd60e51b81526004016106e090612db9565b61014d6110cd61014d6112b0565b106111155760405162461bcd60e51b815260206004820152601860248201527713505617d513d2d15397d4d55414131657d4915050d2115160421b60448201526064016106e0565b336000908152600a602052604090205460ff16156111815760405162461bcd60e51b8152602060048201526024808201527f414444524553535f4841535f414c52454144595f4d494e5445445f3333335f5460448201526327a5a2a760e11b60648201526084016106e0565b8261118b33611a81565b146111ca5760405162461bcd60e51b815260206004820152600f60248201526e135154d4d051d157d2539590531251608a1b60448201526064016106e0565b61120a8383838080601f016020809104026020016040519081016040528093929190818152602001838380828437600092019190915250611ab192505050565b6112545760405162461bcd60e51b815260206004820152601b60248201527a14d251d3905515549157d59053125110551253d397d19052531151602a1b60448201526064016106e0565b336000818152600a60209081526040808320805460ff19166001908117909155815192830190915291815261128d929161014d91611552565b61014d61129b61014d6112b0565b1061077c576007805461ff0019169055505050565b60009081526003602052604090205490565b336112cb610fce565b6001600160a01b0316146112f15760405162461bcd60e51b81526004016106e090612d24565b610b5f81611ae5565b600960205260009081526040902080546108de90612e85565b3361131c610fce565b6001600160a01b0316146113425760405162461bcd60e51b81526004016106e090612d24565b60016000819052600860205260008051602061301b833981519152805460ff19169091179055565b60075460ff1661138c5760405162461bcd60e51b81526004016106e090612d90565b6001600052600860205260008051602061301b8339815191525460ff16156113c65760405162461bcd60e51b81526004016106e090612de6565b346113d88266753d533d968000612e4f565b146113f55760405162461bcd60e51b81526004016106e090612db9565b600081116114445760405162461bcd60e51b815260206004820152601c60248201527b26aaa9aa2fa6a4a72a2fa0aa2fa622a0a9aa2fa7a722afaa27a5a2a760211b60448201526064016106e0565b610b5f3360018360405180602001604052806000815250611552565b600082116114a85760405162461bcd60e51b8152602060048201526015602482015274414d4f554e545f43414e4e4f545f42455f5a45524f60581b60448201526064016106e0565b610abb8585858585611af8565b336114be610fce565b6001600160a01b0316146114e45760405162461bcd60e51b81526004016106e090612d24565b6001600160a01b0381166115495760405162461bcd60e51b815260206004820152602660248201527f4f776e61626c653a206e6577206f776e657220697320746865207a65726f206160448201526564647265737360d01b60648201526084016106e0565b610b5f816118ee565b6001600160a01b0384166115b25760405162461bcd60e51b815260206004820152602160248201527f455243313135353a206d696e7420746f20746865207a65726f206164647265736044820152607360f81b60648201526084016106e0565b336115d2816000876115c388611b7f565b6115cc88611b7f565b87611bca565b6000848152602081815260408083206001600160a01b038916845290915281208054859290611602908490612e37565b909155505060408051858152602081018590526001600160a01b0380881692600092918516917fc3d58168c5ae7397731d063d5bbf3d657854427343f4c083240f7aacaa2d0f62910160405180910390a4610abb81600087878787611bfd565b6060600280546109a690612e85565b81518351146116d35760405162461bcd60e51b815260206004820152602860248201527f455243313135353a2069647320616e6420616d6f756e7473206c656e677468206044820152670dad2e6dac2e8c6d60c31b60648201526084016106e0565b6001600160a01b0384166116f95760405162461bcd60e51b81526004016106e090612c60565b33611708818787878787611bca565b60005b84518110156117ee57600085828151811061172857611728612f33565b60200260200101519050600085838151811061174657611746612f33565b602090810291909101810151600084815280835260408082206001600160a01b038e1683529093529190912054909150818110156117965760405162461bcd60e51b81526004016106e090612cda565b6000838152602081815260408083206001600160a01b038e8116855292528083208585039055908b168252812080548492906117d3908490612e37565b92505081905550505050806117e790612eec565b905061170b565b50846001600160a01b0316866001600160a01b0316826001600160a01b03167f4a39dc06d4c0dbc64b70af90fd698a233a518aa5d07e595d983b8c0526c8f7fb878760405161183e929190612bad565b60405180910390a4611854818787878787611d78565b505050505050565b611864610cd7565b6118a75760405162461bcd60e51b815260206004820152601460248201527314185d5cd8589b194e881b9bdd081c185d5cd95960621b60448201526064016106e0565b6004805460ff60a01b191690557f5db9ee0a495bf2e6ff9c91a7834c1ba4fdd244a5e8aa4e537bd38aeae4b073aa335b6040516118e49190612ae3565b60405180910390a1565b600480546001600160a01b038381166001600160a01b0319831681179093556040519116919082907f8be0079c531659141344cd1fd0a4f28419497f9722a3daafe3b4186f6b6457e090600090a35050565b611948610cd7565b156119655760405162461bcd60e51b81526004016106e090612c36565b6004805460ff60a01b1916600160a01b1790557f62e78cea01bee320cd4e420270b5ea74000d11b0c9f74754ebdbfc544b05a2586118d73390565b816001600160a01b0316836001600160a01b03161415611a145760405162461bcd60e51b815260206004820152602960248201527f455243313135353a2073657474696e6720617070726f76616c20737461747573604482015268103337b91039b2b63360b91b60648201526084016106e0565b6001600160a01b03838116600081815260016020908152604080832094871680845294825291829020805460ff191686151590811790915591519182527f17307eab39ab6107e8899845ad3d59bd9653f200f220920489ca2b5937696c31910160405180910390a3505050565b600081604051602001611a949190612ae3565b604051602081830303815290604052805190602001209050919050565b6000611ac682611ac085611e49565b90611e83565b6007546201000090046001600160a01b03908116911614905092915050565b805161106d906002906020840190612410565b6001600160a01b038516331480611b145750611b148533610627565b611b725760405162461bcd60e51b815260206004820152602960248201527f455243313135353a2063616c6c6572206973206e6f74206f776e6572206e6f7260448201526808185c1c1c9bdd995960ba1b60648201526084016106e0565b610abb8585858585611e9f565b60408051600180825281830190925260609160009190602080830190803683370190505090508281600081518110611bb957611bb9612f33565b602090810291909101015292915050565b611bd2610cd7565b15611bef5760405162461bcd60e51b81526004016106e090612c36565b611854868686868686611fb3565b611c0f846001600160a01b03166120bf565b156118545760405163f23a6e6160e01b81526001600160a01b0385169063f23a6e6190611c489089908990889088908890600401612b55565b602060405180830381600087803b158015611c6257600080fd5b505af1925050508015611c92575060408051601f3d908101601f19168201909252611c8f918101906129a5565b60015b611d3f57611c9e612f5f565b806308c379a01415611cd85750611cb3612f7b565b80611cbe5750611cda565b8060405162461bcd60e51b81526004016106e09190612bdb565b505b60405162461bcd60e51b815260206004820152603460248201527f455243313135353a207472616e7366657220746f206e6f6e20455243313135356044820152732932b1b2b4bb32b91034b6b83632b6b2b73a32b960611b60648201526084016106e0565b6001600160e01b0319811663f23a6e6160e01b14611d6f5760405162461bcd60e51b81526004016106e090612bee565b50505050505050565b611d8a846001600160a01b03166120bf565b156118545760405163bc197c8160e01b81526001600160a01b0385169063bc197c8190611dc39089908990889088908890600401612af7565b602060405180830381600087803b158015611ddd57600080fd5b505af1925050508015611e0d575060408051601f3d908101601f19168201909252611e0a918101906129a5565b60015b611e1957611c9e612f5f565b6001600160e01b0319811663bc197c8160e01b14611d6f5760405162461bcd60e51b81526004016106e090612bee565b6040517b0ca2ba3432b932bab69029b4b3b732b21026b2b9b9b0b3b29d05199960211b6020820152603c8101829052600090605c01611a94565b6000806000611e9285856120ce565b91509150610cbc8161213e565b6001600160a01b038416611ec55760405162461bcd60e51b81526004016106e090612c60565b33611ed58187876115c388611b7f565b6000848152602081815260408083206001600160a01b038a16845290915290205483811015611f165760405162461bcd60e51b81526004016106e090612cda565b6000858152602081815260408083206001600160a01b038b8116855292528083208785039055908816825281208054869290611f53908490612e37565b909155505060408051868152602081018690526001600160a01b03808916928a821692918616917fc3d58168c5ae7397731d063d5bbf3d657854427343f4c083240f7aacaa2d0f62910160405180910390a4611d6f828888888888611bfd565b6001600160a01b03851661203a5760005b835181101561203857828181518110611fdf57611fdf612f33565b602002602001015160036000868481518110611ffd57611ffd612f33565b6020026020010151815260200190815260200160002060008282546120229190612e37565b90915550612031905081612eec565b9050611fc4565b505b6001600160a01b0384166118545760005b8351811015611d6f5782818151811061206657612066612f33565b60200260200101516003600086848151811061208457612084612f33565b6020026020010151815260200190815260200160002060008282546120a99190612e6e565b909155506120b8905081612eec565b905061204b565b6001600160a01b03163b151590565b6000808251604114156121055760208301516040840151606085015160001a6120f9878285856122f4565b94509450505050612137565b82516040141561212f57602083015160408401516121248683836123d7565b935093505050612137565b506000905060025b9250929050565b600081600481111561215257612152612f1d565b141561215b5750565b600181600481111561216f5761216f612f1d565b14156121b85760405162461bcd60e51b815260206004820152601860248201527745434453413a20696e76616c6964207369676e617475726560401b60448201526064016106e0565b60028160048111156121cc576121cc612f1d565b141561221a5760405162461bcd60e51b815260206004820152601f60248201527f45434453413a20696e76616c6964207369676e6174757265206c656e6774680060448201526064016106e0565b600381600481111561222e5761222e612f1d565b14156122875760405162461bcd60e51b815260206004820152602260248201527f45434453413a20696e76616c6964207369676e6174757265202773272076616c604482015261756560f01b60648201526084016106e0565b600481600481111561229b5761229b612f1d565b1415610b5f5760405162461bcd60e51b815260206004820152602260248201527f45434453413a20696e76616c6964207369676e6174757265202776272076616c604482015261756560f01b60648201526084016106e0565b6000806fa2a8918ca85bafe22016d0b997e4df60600160ff1b0383111561232157506000905060036123ce565b8460ff16601b1415801561233957508460ff16601c14155b1561234a57506000905060046123ce565b6040805160008082526020820180845289905260ff881692820192909252606081018690526080810185905260019060a0016020604051602081039080840390855afa15801561239e573d6000803e3d6000fd5b5050604051601f1901519150506001600160a01b0381166123c7576000600192509250506123ce565b9150600090505b94509492505050565b6000806001600160ff1b038316816123f460ff86901c601b612e37565b9050612402878288856122f4565b935093505050935093915050565b82805461241c90612e85565b90600052602060002090601f01602090048101928261243e5760008555612484565b82601f1061245757805160ff1916838001178555612484565b82800160010185558215612484579182015b82811115612484578251825591602001919060010190612469565b50612490929150612494565b5090565b5b808211156124905760008155600101612495565b80356001600160a01b03811681146124c057600080fd5b919050565b600082601f8301126124d657600080fd5b813560206124e382612e14565b6040516124f08282612ec0565b8381528281019150858301600585901b8701840188101561251057600080fd5b60005b8581101561252f57813584529284019290840190600101612513565b5090979650505050505050565b803580151581146124c057600080fd5b600082601f83011261255d57600080fd5b81356001600160401b0381111561257657612576612f49565b60405161258d601f8301601f191660200182612ec0565b8181528460208386010111156125a257600080fd5b816020850160208301376000918101602001919091529392505050565b6000602082840312156125d157600080fd5b6125da826124a9565b9392505050565b600080604083850312156125f457600080fd5b6125fd836124a9565b915061260b602084016124a9565b90509250929050565b600080600080600060a0868803121561262c57600080fd5b612635866124a9565b9450612643602087016124a9565b935060408601356001600160401b038082111561265f57600080fd5b61266b89838a016124c5565b9450606088013591508082111561268157600080fd5b61268d89838a016124c5565b935060808801359150808211156126a357600080fd5b506126b08882890161254c565b9150509295509295909350565b600080600080600060a086880312156126d557600080fd5b6126de866124a9565b94506126ec602087016124a9565b9350604086013592506060860135915060808601356001600160401b0381111561271557600080fd5b6126b08882890161254c565b6000806040838503121561273457600080fd5b61273d836124a9565b915061260b6020840161253c565b6000806040838503121561275e57600080fd5b612767836124a9565b946020939093013593505050565b60008060006060848603121561278a57600080fd5b612793846124a9565b95602085013595506040909401359392505050565b6000806000604084860312156127bd57600080fd5b83356001600160401b03808211156127d457600080fd5b818601915086601f8301126127e857600080fd5b8135818111156127f757600080fd5b8760208260051b850101111561280c57600080fd5b6020928301989097509590910135949350505050565b6000806040838503121561283557600080fd5b82356001600160401b038082111561284c57600080fd5b818501915085601f83011261286057600080fd5b8135602061286d82612e14565b60405161287a8282612ec0565b8381528281019150858301600585901b870184018b101561289a57600080fd5b600096505b848710156128c4576128b0816124a9565b83526001969096019591830191830161289f565b50965050860135925050808211156128db57600080fd5b506128e8858286016124c5565b9150509250929050565b60006020828403121561290457600080fd5b6125da8261253c565b60008060006040848603121561292257600080fd5b8335925060208401356001600160401b038082111561294057600080fd5b818601915086601f83011261295457600080fd5b81358181111561296357600080fd5b87602082850101111561297557600080fd5b6020830194508093505050509250925092565b60006020828403121561299a57600080fd5b81356125da81613004565b6000602082840312156129b757600080fd5b81516125da81613004565b6000602082840312156129d457600080fd5b81356001600160401b038111156129ea57600080fd5b6129f68482850161254c565b949350505050565b60008060408385031215612a1157600080fd5b82356001600160401b03811115612a2757600080fd5b612a338582860161254c565b95602094909401359450505050565b600060208284031215612a5457600080fd5b5035919050565b600081518084526020808501945080840160005b83811015612a8b57815187529582019590820190600101612a6f565b509495945050505050565b6000815180845260005b81811015612abc57602081850181015186830182015201612aa0565b81811115612ace576000602083870101525b50601f01601f19169290920160200192915050565b6001600160a01b0391909116815260200190565b6001600160a01b0386811682528516602082015260a060408201819052600090612b2390830186612a5b565b8281036060840152612b358186612a5b565b90508281036080840152612b498185612a96565b98975050505050505050565b6001600160a01b03868116825285166020820152604081018490526060810183905260a060808201819052600090612b8f90830184612a96565b979650505050505050565b6020815260006125da6020830184612a5b565b604081526000612bc06040830185612a5b565b8281036020840152612bd28185612a5b565b95945050505050565b6020815260006125da6020830184612a96565b60208082526028908201527f455243313135353a204552433131353552656365697665722072656a656374656040820152676420746f6b656e7360c01b606082015260800190565b60208082526010908201526f14185d5cd8589b194e881c185d5cd95960821b604082015260600190565b60208082526025908201527f455243313135353a207472616e7366657220746f20746865207a65726f206164604082015264647265737360d81b606082015260800190565b6020808252818101527f4e45575f53544154455f4944454e544943414c5f544f5f4f4c445f5354415445604082015260600190565b6020808252602a908201527f455243313135353a20696e73756666696369656e742062616c616e636520666f60408201526939103a3930b739b332b960b11b606082015260800190565b6020808252818101527f4f776e61626c653a2063616c6c6572206973206e6f7420746865206f776e6572604082015260600190565b6020808252601d908201527f43414e4e4f545f4d494e545f4558495354494e475f544f4b454e5f4944000000604082015260600190565b6020808252600f908201526e53414c455f4e4f545f41435449564560881b604082015260600190565b60208082526013908201527214149250d157d5d054d7d25390d3d4949150d5606a1b604082015260600190565b60208082526014908201527311d1539154d254d7d513d2d15397d313d0d2d15160621b604082015260600190565b60006001600160401b03821115612e2d57612e2d612f49565b5060051b60200190565b60008219821115612e4a57612e4a612f07565b500190565b6000816000190483118215151615612e6957612e69612f07565b500290565b600082821015612e8057612e80612f07565b500390565b600181811c90821680612e9957607f821691505b60208210811415612eba57634e487b7160e01b600052602260045260246000fd5b50919050565b601f8201601f191681016001600160401b0381118282101715612ee557612ee5612f49565b6040525050565b6000600019821415612f0057612f00612f07565b5060010190565b634e487b7160e01b600052601160045260246000fd5b634e487b7160e01b600052602160045260246000fd5b634e487b7160e01b600052603260045260246000fd5b634e487b7160e01b600052604160045260246000fd5b600060033d1115612f785760046000803e5060005160e01c5b90565b600060443d1015612f895790565b6040516003193d81016004833e81513d6001600160401b038160248401118184111715612fb857505050505090565b8285019150815181811115612fd05750505050505090565b843d8701016020828501011115612fea5750505050505090565b612ff960208286010187612ec0565b509095945050505050565b6001600160e01b031981168114610b5f57600080fdfead67d757c34507f157cacfa2e3153e9f260a2244f30428821be7be64587ac55fa264697066735822122004bde9faf2e53bdd17cb0e57d81c73f931be1fe20383ef5e417e844d100b0ee664736f6c63430008070033",
  "immutableReferences": {},
  "source": "// SPDX-License-Identifier: MIT\npragma solidity ^0.8.7;\n\nimport \"@openzeppelin/contracts/token/ERC1155/extensions/ERC1155Supply.sol\";\nimport \"@openzeppelin/contracts/access/Ownable.sol\";\nimport \"@openzeppelin/contracts/security/Pausable.sol\";\nimport \"@openzeppelin/contracts/utils/cryptography/ECDSA.sol\";\n\ncontract ZenAcademy is ERC1155Supply, Ownable, Pausable {\n    using ECDSA for bytes32;\n\n    // Contract name\n    string public name;\n    // Contract symbol\n    string public symbol;\n\n    uint256 public constant TOKEN_ID_GENESIS = 1;\n    uint256 public constant TOKEN_PRICE_GENESIS = 0.033 ether;\n    uint256 public constant TOKEN_ID_333 = 333;\n    uint256 public constant TOKEN_PRICE_333 = 3.33 ether;\n    uint256 public constant MAX_TOKENS_333 = 333;\n\n    bool public saleIsActiveGenesis = false;\n    bool public saleIsActive333 = false;\n\n    // Used to validate authorized mint addresses\n    address private signerAddress = 0xabcB40408a94E94f563d64ded69A75a3098cBf59;\n\n    // Used to ensure each new token id can only be minted once by the owner\n    mapping (uint256 => bool) public collectionMinted;\n    mapping (uint256 => string) public tokenURI;\n    mapping (address => bool) public hasAddressMinted333;\n\n    constructor(\n        string memory uriBase,\n        string memory uriGenesis,\n        string memory uri333,\n        string memory _name,\n        string memory _symbol\n    ) ERC1155(uriBase) {\n        name = _name;\n        symbol = _symbol;\n        tokenURI[TOKEN_ID_GENESIS] = uriGenesis;\n        tokenURI[TOKEN_ID_333] = uri333;\n    }\n\n    /**\n     * Returns the custom URI for each token id. Overrides the default ERC-1155 single URI.\n     */\n    function uri(uint256 tokenId) public view override returns (string memory) {\n        // If no URI exists for the specific id requested, fallback to the default ERC-1155 URI.\n        if (bytes(tokenURI[tokenId]).length == 0) {\n            return super.uri(tokenId);\n        }\n        return tokenURI[tokenId];\n    }\n\n    /**\n     * Sets a URI for a specific token id.\n     */\n    function setURI(string memory newTokenURI, uint256 tokenId) public onlyOwner {\n        tokenURI[tokenId] = newTokenURI;\n    }\n\n    /**\n     * Set the global default ERC-1155 base URI to be used for any tokens without unique URIs\n     */\n    function setGlobalURI(string memory newTokenURI) public onlyOwner {\n        _setURI(newTokenURI);\n    }\n\n    function setGenesisSaleState(bool newState) public onlyOwner {\n        require(saleIsActiveGenesis != newState, \"NEW_STATE_IDENTICAL_TO_OLD_STATE\");\n        saleIsActiveGenesis = newState;\n    }\n\n    function set333SaleState(bool newState) public onlyOwner {\n        require(saleIsActive333 != newState, \"NEW_STATE_IDENTICAL_TO_OLD_STATE\");\n        saleIsActive333 = newState;\n    }\n\n    function setSignerAddress(address _signerAddress) external onlyOwner {\n        require(_signerAddress != address(0));\n        signerAddress = _signerAddress;\n    }\n\n    /**\n     * Lock Genesis token so that it can never be minted again\n     */\n    function lockGenesis() public onlyOwner {\n        collectionMinted[TOKEN_ID_GENESIS] = true;\n    }\n\n    function pause() public onlyOwner {\n        _pause();\n    }\n\n    function unpause() public onlyOwner {\n        _unpause();\n    }\n\n    function verifyAddressSigner(bytes32 messageHash, bytes memory signature) private view returns (bool) {\n        return signerAddress == messageHash.toEthSignedMessageHash().recover(signature);\n    }\n\n    function hashMessage(address sender) private pure returns (bytes32) {\n        return keccak256(abi.encode(sender));\n    }\n\n    /**\n     * @notice Allow minting of Genesis tokens by anyone while the sale is active in any quantity\n     */\n    function mintGenesis(uint256 numberOfTokens) external payable {\n        require(saleIsActiveGenesis, \"SALE_NOT_ACTIVE\");\n        require(!collectionMinted[TOKEN_ID_GENESIS], \"GENESIS_TOKEN_LOCKED\");\n        require(TOKEN_PRICE_GENESIS * numberOfTokens == msg.value, \"PRICE_WAS_INCORRECT\");\n        require(numberOfTokens > 0, \"MUST_MINT_AT_LEAST_ONE_TOKEN\");\n        _mint(msg.sender, TOKEN_ID_GENESIS, numberOfTokens, \"\");\n    }\n\n    /**\n     * @notice Allow minting of a single 333 token by whitelisted addresses only\n     */\n    function mint333(bytes32 messageHash, bytes calldata signature) external payable {\n        require(saleIsActive333, \"SALE_NOT_ACTIVE\");\n        require(TOKEN_PRICE_333 == msg.value, \"PRICE_WAS_INCORRECT\");\n        require(totalSupply(TOKEN_ID_333) < MAX_TOKENS_333, \"MAX_TOKEN_SUPPLY_REACHED\");\n        require(hasAddressMinted333[msg.sender] == false, \"ADDRESS_HAS_ALREADY_MINTED_333_TOKEN\");\n        require(hashMessage(msg.sender) == messageHash, \"MESSAGE_INVALID\");\n        require(verifyAddressSigner(messageHash, signature), \"SIGNATURE_VALIDATION_FAILED\");\n\n        hasAddressMinted333[msg.sender] = true;\n\n        _mint(msg.sender, TOKEN_ID_333, 1, \"\");\n\n        if (totalSupply(TOKEN_ID_333) >= MAX_TOKENS_333) {\n            saleIsActive333 = false;\n        }\n    }\n\n    /**\n     * @notice Allow minting of any future tokens as desired as part of the same collection,\n     * which can then be transferred to another contract for distribution purposes\n     */\n    function adminMint(address account, uint256 id, uint256 amount) public onlyOwner\n    {\n        require(!collectionMinted[id], \"CANNOT_MINT_EXISTING_TOKEN_ID\");\n        require(id != TOKEN_ID_GENESIS && id != TOKEN_ID_333, \"CANNOT_MINT_EXISTING_TOKEN_ID\");\n        collectionMinted[id] = true;\n        _mint(account, id, amount, \"\");\n    }\n\n    /**\n     * @notice Allow owner to send `mintNumber` Genesis tokens without cost to multiple addresses\n     */\n    function giftGenesis(address[] calldata receivers, uint256 numberOfTokens) external onlyOwner {\n        require(!collectionMinted[TOKEN_ID_GENESIS], \"GENESIS_TOKEN_LOCKED\");\n        for (uint256 i = 0; i < receivers.length; i++) {\n            _mint(receivers[i], TOKEN_ID_GENESIS, numberOfTokens, \"\");\n        }\n    }\n\n    /**\n     * @notice Allow owner to send `mintNumber` 333 tokens without cost to multiple addresses\n     */\n    function gift333(address[] calldata receivers, uint256 numberOfTokens) external onlyOwner {\n        require((totalSupply(TOKEN_ID_333) + (receivers.length * numberOfTokens)) <= MAX_TOKENS_333, \"MINT_TOO_LARGE\");\n\n        for (uint256 i = 0; i < receivers.length; i++) {\n            _mint(receivers[i], TOKEN_ID_333, numberOfTokens, \"\");\n        }\n    }\n\n    /**\n     * @notice Override ERC1155 such that zero amount token transfers are disallowed to prevent arbitrary creation of new tokens in the collection.\n     */\n    function safeTransferFrom(\n        address from,\n        address to,\n        uint256 id,\n        uint256 amount,\n        bytes memory data\n    ) public override {\n        require(amount > 0, \"AMOUNT_CANNOT_BE_ZERO\");\n        return super.safeTransferFrom(from, to, id, amount, data);\n    }\n\n    /**\n     * @notice When the contract is paused, all token transfers are prevented in case of emergency.\n     */\n    function _beforeTokenTransfer(address operator, address from, address to, uint256[] memory ids, uint256[] memory amounts, bytes memory data)\n        internal\n        whenNotPaused\n        override\n    {\n        super._beforeTokenTransfer(operator, from, to, ids, amounts, data);\n    }\n\n    function withdraw() external onlyOwner {\n        require(address(this).balance > 0, \"BALANCE_IS_ZERO\");\n        payable(msg.sender).transfer(address(this).balance);\n    }\n}",
  "sourcePath": "/Users/jake/code/midnight-labs-contracts/contracts/MidnightLabs.sol",
  "compiler": {
    "name": "solc",
    "version": "0.8.7+commit.e28d00a7.Emscripten.clang"
  },
  "schemaVersion": "3.4.6",
  "updatedAt": "2022-04-16T13:04:12.540Z",
  "devdoc": {
    "kind": "dev",
    "methods": {
      "balanceOf(address,uint256)": {
        "details": "See {IERC1155-balanceOf}. Requirements: - `account` cannot be the zero address."
      },
      "balanceOfBatch(address[],uint256[])": {
        "details": "See {IERC1155-balanceOfBatch}. Requirements: - `accounts` and `ids` must have the same length."
      },
      "exists(uint256)": {
        "details": "Indicates whether any token exist with a given id, or not."
      },
      "isApprovedForAll(address,address)": {
        "details": "See {IERC1155-isApprovedForAll}."
      },
      "owner()": {
        "details": "Returns the address of the current owner."
      },
      "paused()": {
        "details": "Returns true if the contract is paused, and false otherwise."
      },
      "renounceOwnership()": {
        "details": "Leaves the contract without owner. It will not be possible to call `onlyOwner` functions anymore. Can only be called by the current owner. NOTE: Renouncing ownership will leave the contract without an owner, thereby removing any functionality that is only available to the owner."
      },
      "safeBatchTransferFrom(address,address,uint256[],uint256[],bytes)": {
        "details": "See {IERC1155-safeBatchTransferFrom}."
      },
      "setApprovalForAll(address,bool)": {
        "details": "See {IERC1155-setApprovalForAll}."
      },
      "supportsInterface(bytes4)": {
        "details": "See {IERC165-supportsInterface}."
      },
      "totalSupply(uint256)": {
        "details": "Total amount of tokens in with a given id."
      },
      "transferOwnership(address)": {
        "details": "Transfers ownership of the contract to a new account (`newOwner`). Can only be called by the current owner."
      }
    },
    "version": 1
  },
  "userdoc": {
    "kind": "user",
    "methods": {
      "adminMint(address,uint256,uint256)": {
        "notice": "Allow minting of any future tokens as desired as part of the same collection, which can then be transferred to another contract for distribution purposes"
      },
      "gift333(address[],uint256)": {
        "notice": "Allow owner to send `mintNumber` 333 tokens without cost to multiple addresses"
      },
      "giftGenesis(address[],uint256)": {
        "notice": "Allow owner to send `mintNumber` Genesis tokens without cost to multiple addresses"
      },
      "lockGenesis()": {
        "notice": "Lock Genesis token so that it can never be minted again"
      },
      "mint333(bytes32,bytes)": {
        "notice": "Allow minting of a single 333 token by whitelisted addresses only"
      },
      "mintGenesis(uint256)": {
        "notice": "Allow minting of Genesis tokens by anyone while the sale is active in any quantity"
      },
      "safeTransferFrom(address,address,uint256,uint256,bytes)": {
        "notice": "Override ERC1155 such that zero amount token transfers are disallowed to prevent arbitrary creation of new tokens in the collection."
      },
      "setGlobalURI(string)": {
        "notice": "Set the global default ERC-1155 base URI to be used for any tokens without unique URIs"
      },
      "setURI(string,uint256)": {
        "notice": "Sets a URI for a specific token id."
      },
      "uri(uint256)": {
        "notice": "Returns the custom URI for each token id. Overrides the default ERC-1155 single URI."
      }
    },
    "version": 1
  }
}